:020000040800F2
:100000000000102499380108A5300008AD30000820
:10001000B5300008BD300008C53000080000000001
:100020000000000000000000000000009122020813
:10003000CD30000800000000E12402084925020834
:10004000ED380108ED380108ED380108ED380108F8
:10005000ED380108ED380108ED380108ED380108E8
:10006000ED380108ED380108ED380108ED380108D8
:10007000ED380108ED380108ED380108ED380108C8
:10008000ED380108ED380108ED380108ED380108B8
:10009000ED380108ED380108ED380108ED380108A8
:1000A000ED380108ED380108ED380108ED38010898
:1000B000ED380108ED380108DD300008F1300008A6
:1000C00005310008ED380108ED3801081931000844
:1000D000ED3801082D310008413100085531000884
:1000E000ED380108ED380108ED380108ED38010858
:1000F000ED380108ED380108ED380108ED38010848
:10010000ED380108ED380108ED380108ED38010837
:10011000693100087D310008ED380108ED3801082B
:10012000ED380108ED380108ED380108ED38010817
:10013000ED3801080000000000000000ED38010863
:10014000ED380108ED380108ED380108ED380108F7
:10015000ED380108ED380108ED380108913100084B
:10016000A5310008B9310008ED380108ED38010863
:10017000ED380108ED380108ED38010800000000F5
:10018000ED380108ED380108ED380108ED380108B7
:10019000ED380108ED380108ED380108ED380108A7
:1001A000ED380108ED380108ED380108ED38010897
:1001B000ED380108ED380108ED380108ED38010887
:1001C000ED380108ED3801080000000000000000D3
:1001D0000000000000000000ED38010800000000F1
:1001E000000000000000000000000000000000000F
:1001F0000000000000000000ED380108ED380108A3
:10020000ED380108ED38010800000000ED38010864
:10021000ED380108ED380108ED380108ED38010826
:10022000ED380108ED380108ED3801080000000044
:10023000ED380108ED38010800000000ED38010834
:10024000ED380108ED380108ED380108ED380108F6
:10025000ED380108ED380108ED380108ED380108E6
:10026000ED380108ED380108ED380108ED380108D6
:10027000ED380108ED380108ED38010800000000F4
:10028000ED380108ED38010800000000ED380108E4
:1002900000000000ED380108ED3801080000000002
:0C02A00000000000ED380108ED380108F6
:1002B00010B5054C237833B9044B13B10448AFF3A0
:1002C00000800123237010BD4C1A002400000000A0
:1002D000989F030808B5034B1BB103490348AFF3CC
:1002E000008008BD00000000501A0024989F0308F9
:1002F00010F8012B11F8013B012A28BF9A42F7D0D0
:10030000D01A70470000000000000000000000004C
:1003100001F0FF01102A2BDB10F0070F08D010F8B6
:10032000013B013A8B422DD010F0070F42B3F6D1BA
:10033000F0B441EA012141EA014122F007047FF0D3
:1003400000070023F0E80256083C85EA010586EA2A
:10035000010685FA47F5A3FA87F586FA47F6A5FA66
:1003600087F68EB9EED1F0BC01F0FF0102F0070272
:1003700032B110F8013B013A83EA010313B1F8D11D
:100380000020704701387047002D06BF35460338FE
:10039000073815F0010F07D1013015F4807F02BF37
:1003A000013015F4C03F0130F0BC0138704700BF88
:1003B000034613F8012B002AFBD1181A01387047A5
:1003C00081F0004102E000BF83F0004330B54FEA06
:1003D00041044FEA430594EA050F08BF90EA020F73
:1003E0001FBF54EA000C55EA020C7FEA645C7FEA06
:1003F000655C00F0E2804FEA5454D4EB5555B8BF29
:100400006D420CDD2C4480EA020281EA030382EA99
:10041000000083EA010180EA020281EA0303362D2B
:1004200088BF30BD11F0004F4FEA01314FF4801CFE
:100430004CEA113102D0404261EB410113F0004F10
:100440004FEA03334CEA133302D0524263EB4303C7
:1004500094EA050F00F0A780A4F10104D5F1200E65
:100460000DDB02FA0EFC22FA05F2801841F10001C0
:1004700003FA0EF2801843FA05F359410EE0A5F194
:1004800020050EF1200E012A03FA0EFC28BF4CF0C5
:10049000020C43FA05F3C01851EBE37101F000457B
:1004A00007D54FF0000EDCF1000C7EEB00006EEB88
:1004B0000101B1F5801F1BD3B1F5001F0CD3490812
:1004C0005FEA30004FEA3C0C04F101044FEA445269
:1004D00012F5800F80F09A80BCF1004F08BF5FEAF0
:1004E000500C50F1000041EB045141EA050130BDD0
:1004F0005FEA4C0C404141EB0101013C28BFB1F5E2
:10050000801FE9D291F0000F04BF01460020B1FA2C
:1005100081F308BF2033A3F10B03B3F120020CDAFF
:100520000C3208DD02F1140CC2F10C0201FA0CF0DD
:1005300021FA02F10CE002F11402D8BFC2F1200C42
:1005400001FA02F120FA0CFCDCBF41EA0C019040F8
:10055000E41AA2BF01EB0451294330BD6FEA040441
:100560001F3C1CDA0C340EDC04F11404C4F120022C
:1005700020FA04F001FA02F340EA030021FA04F33E
:1005800045EA030130BDC4F10C04C4F1200220FA95
:1005900002F001FA04F340EA0300294630BD21FAD3
:1005A00004F0294630BD94F0000F83F4801306BF99
:1005B00081F480110134013D4EE77FEA645C18BF8D
:1005C0007FEA655C29D094EA050F08BF90EA020F24
:1005D00005D054EA000C04BF1946104630BD91EA1C
:1005E000030F1EBF0021002030BD5FEA545C05D11F
:1005F0004000494128BF41F0004130BD14F580045E
:100600003CBF01F5801130BD01F0004545F0FE41D1
:1006100041F470014FF0000030BD7FEA645C1ABF06
:10062000194610467FEA655C1CBF0B46024650EA3D
:10063000013406BF52EA033591EA030F41F4002169
:1006400030BD00BF90F0000F04BF0021704730B5EF
:100650004FF4806404F132044FF000054FF00001C4
:1006600050E700BF90F0000F04BF0021704730B585
:100670004FF4806404F1320410F0004548BF40425A
:100680004FF000013EE700BF42004FEAE2014FEAAF
:1006900031014FEA02701FBF12F07F4393F07F4F8A
:1006A00081F06051704732F07F4208BF704793F08D
:1006B0007F4F04BF41F40021704730B54FF46074A0
:1006C00001F0004521F000411CE700BF50EA0102A3
:1006D00008BF704730B54FF000050AE050EA01024C
:1006E00008BF704730B511F0004502D5404261EBBC
:1006F00041014FF4806404F132045FEA915C3FF4FD
:10070000D8AE4FF003025FEADC0C18BF03325FEA99
:10071000DC0C18BF033202EBDC02C2F1200300FA4A
:1007200003FC20FA02F001FA03FE40EA0E0021FA6F
:1007300002F11444BDE600BF7BB972B90029BEBF07
:1007400000204FF0004106E008BF00281CBF6FF0FA
:1007500000414FF0FF3000F0D3B9ADF1080C6DE966
:1007600004CE002909DB002B1ADB00F04DF8DDF880
:1007700004E0DDE9022304B07047404261EB41012F
:10078000002B1BDB00F040F8DDF804E0DDE902237C
:1007900004B0404261EB4101524263EB43037047B6
:1007A000524263EB430300F02FF8DDF804E0DDE98B
:1007B000022304B0404261EB41017047524263EBB7
:1007C000430300F021F8DDF804E0DDE9022304B082
:1007D000524263EB4303704753B94AB9002908BF3B
:1007E00000281CBF4FF0FF314FF0FF3000F088B9F8
:1007F000ADF1080C6DE904CE00F006F8DDF804E078
:10080000DDE9022304B070472DE9F047089D8E46CC
:1008100004468846002B4AD18A42174662D9B2FA6A
:1008200082F64EB1C6F1200301FA06F820FA03F36E
:10083000B74043EA0808B4404FEA174E1FFA87FC56
:10084000B8FBFEF1230C0EFB118843EA084301FBC1
:100850000CF29A4209D9FB1801F1FF3080F0EA80CE
:100860009A4240F2E78002393B449A1AA3B2B2FBA3
:10087000FEF00EFB102243EA024300FB0CFC9C45F9
:1008800009D9FB1800F1FF3280F0D6809C4540F278
:10089000D3803B44023840EA0140A3EB0C03002123
:1008A0001DB1F3400022C5E90032BDE8F0878B425C
:1008B00005D90DB1C5E9000100210846F5E7B3FAF5
:1008C00083F1002946D1734502D3824200F20581AB
:1008D000841A6EEB030201209046002DE5D0C5E995
:1008E0000048E2E7002A00F09080B2FA82F6002E7B
:1008F00040F0A4808A1A030C4FEA174E80B2BCB2B3
:100900000121B2FBFEFC0EFB1C2243EA024304FB66
:100910000CF29A4207D9FB180CF1FF3802D29A4226
:1009200000F2E080C4469B1AB3FBFEF20EFB1233CA
:1009300040EA034302FB04F49C4207D9FB1802F18E
:10094000FF3002D29C4200F2CA8002461B1B42EAE0
:100950000C40A5E7C1F120068B4022FA06F71F43A1
:100960000EFA01F420FA06F32EFA06FE4FEA1749B2
:10097000234300FA01F81FFA87FCBEFBF9F01C0CB8
:1009800009FB10EE44EA0E4400FB0CFEA64502FAF9
:1009900001F209D93C1900F1FF3A80F09C80A6458C
:1009A00040F2998002383C44A4EB0E041FFA83FE07
:1009B000B4FBF9F309FB13444EEA044403FB0CFCBB
:1009C000A44508D93C1903F1FF3E80F08280A4457C
:1009D0007FD9023B3C4443EA0040A4EB0C04A0FB5B
:1009E00002EC64457346E14662D35FD05DB1B8EB7B
:1009F000030264EB090404FA06F622FA01F31E432B
:100A0000CC40C5E9006400214FE7B1FBF2FC010CCA
:100A100041EA0E4180B240EA01423B4638463C463C
:100A2000B846BE462026B1FBF7F1A2EB080241EA28
:100A30000C4166E7014618E710462CE7C6F1200294
:100A40002EFA02F3B740B14020FA02F24FEA174EF5
:100A50000A43B3FBFEF8BCB20EFB1833110C41EA9B
:100A6000034108FB04F9B04089454FEA104380B2C6
:100A70003ED9791808F1FF3C01D289451FD8A1EB76
:100A80000901B1FBFEF909FB04F80EFB191192B242
:100A900042EA0142424529D2BA1809F1FF31C4D2D3
:100AA0004245C2D2A9F102013A44BEE7F0459DD2C7
:100AB000BEEB02036CEB070C0138E14696E7A7EBAF
:100AC00009094944A8F1020CB1FBFEF909FB04F83D
:100AD000DBE773467FE7504666E70846FDE63B44A2
:100AE000023A33E7ACF1020C3B441CE749469CE771
:100AF000A1EB0901C446B1FBFEF909FB04F8C4E708
:100B0000704700BF80B582B000AF7860094A7B684B
:100B10001A604FF4C8620021074835F04BFF4FF4CC
:100B2000C8620021054835F045FF7B681846083744
:100B3000BD4680BD44D00308701B0024B0210024B2
:100B400080B483B000AF7860044A7B681A607B6829
:100B500018460C37BD465DF8047B704744D0030847
:100B600080B582B000AF78607868FFF7E9FF4FF496
:100B7000C861786835F01EF87B6818460837BD46AE
:100B800080BD000080B584B000AF78600023FB73A7
:100B9000524B1B79012B04D1514B022283F83C2686
:100BA00010E04E4B5B79012B04D14D4B012283F8B1
:100BB0003C2607E0494B9B79012B03D1484B03228C
:100BC00083F83C26474A4849484835F06BFE484A76
:100BD0004549484835F066FE474A4349474835F09D
:100BE00061FE474A4049474835F05CFE464A3E4967
:100BF000464835F057FE464A3B49464835F052FED6
:100C0000454A3949454835F04DFE454A364945483B
:100C100035F048FE3E4A3449434835F043FE434AE6
:100C20003149434835F03EFE424A2F49424835F0AB
:100C300039FE404A2C49414835F034FE344A2A49AD
:100C40003F4835F02FFE3F4A27493F4835F02AFEFE
:100C50003C4A25493D4835F025FE3A4A22493C4860
:100C600035F020FE374A20493A4835F01BFE3A4A13
:100C70001D493A4835F016FE394A1B49394835F0C6
:100C800011FE394A1849394835F00CFE384A1649E0
:100C9000384835F007FE124B1E22A3F83826364A94
:100CA0001149364835F0FEFD334A0F49344835F0D6
:100CB000F9FD314A0C49334835F0F4FD084B40F258
:100CC0005B72A3F83A26064800F05EF80346FB7311
:100CD000FB7B18461037BD4680BD00BF0CBE042408
:100CE000701B0024B09F0308C09F0308741B0024DE
:100CF000C49F0308F41B0024E09F0308741C002415
:100D000000A00308F41C00240CA00308341D0024D8
:100D100018A00308741D002424A00308B41D002497
:100D200038A00308F41D0024341E002444A0030846
:100D3000741E002458A00308B41E0024F41E0024CE
:100D4000341F00245CA00308741F0024B41F002477
:100D5000F41F00243420002480A003087420002401
:100D600094A00308B4200024A8A00308F4200024C1
:100D7000B4A0030844210024C0A003086E2100246D
:100D80007E2100248E21002480B584B000AF7860DD
:100D90000023FB734FF4C8620549064830F0FCFBA2
:100DA0000346FB73FB7B18461037BD4680BD00BF72
:100DB000701B0024FCAF042480B584B000AF7860C1
:100DC0004FF4C8620449054830F0FDFB0346FB734D
:100DD00000BF1037BD4680BDB0210024FCAF042405
:100DE00080B500AF0348FFF78DFE0348FFF78AFE8A
:100DF00000BF80BD701B0024B021002480B500AF6F
:100E00000348FFF79DFE0348FFF79AFE00BF80BD31
:100E1000B0210024701B002480B500AFFFF7E0FF75
:100E200080BD80B500AFFFF7E9FF80BD80B485B01D
:100E300000AFF860B9607A60FB68074A1A60BB6867
:100E4000064A1A607B6880221A6000BF1437BD46CC
:100E50005DF8047B704700BFF0270024442800247D
:100E6000B0B5C4B000AF01F0F3FA12F041FD00F0EC
:100E700013F900F0C3FD00F00DFA00F059FA00F08C
:100E8000F7FA00F07BFB00F0D9FB00F037FC00F034
:100E900095FC00F0F3FC00F051FD00F0BBFA00F00F
:100EA00041FB00F087F900F091FA0023C7F8083100
:100EB0000023C7F80C3107F5847318461FF0A7F913
:100EC0000346614A13600023C7F800310023C7F8C6
:100ED000043107F58073012118461FF035FA0346E7
:100EE0005A4A13605A4B07F1E4041D460FCD0FC454
:100EF00095E8070084E8070007F1E403002118469D
:100F00001FF025F90346534A1360534B07F1C804F9
:100F10001D460FCD0FC495E8070084E8070007F1D0
:100F2000C803002118461FF012F903464B4A13600C
:100F30004B4B07F1AC041D460FCD0FC495E80700DD
:100F400084E8070007F1AC03002118461FF0FFF802
:100F50000346444A1360444B07F190041D460FCDED
:100F60000FC495E8070084E8070007F1900300210B
:100F700018461FF0ECF803463C4A13603C4B07F15F
:100F800074041D460FCD0FC495E8070084E80700E0
:100F900007F17403002118461FF0D9F80346354ABB
:100FA0001360354B07F158041D460FCD0FC495E86B
:100FB000070084E8070007F15803002118461FF0D6
:100FC000C6F803462D4A13602D4B07F13C041D461D
:100FD0000FCD0FC495E8070084E8070007F13C0334
:100FE000002118461FF0B3F80346264A1360264B2B
:100FF00007F120041D460FCD0FC495E8070084E8D3
:10100000070007F12003002118461FF0A0F803464F
:101010001E4A136007F58873A3F586731C4A1C46A5
:1010200015460FCD0FC495E8070084E807003B1D67
:10103000002118461FF08BF80346164A13601FF074
:101040007FF800BFFDE700BF483100244C31002489
:10105000E0A00308243100240CA103082831002457
:1010600034A103082C31002460A10308303100248E
:101070008CA1030834310024B8A1030838310024BE
:10108000E4A103083C31002410A2030840310024ED
:101090003CA203084431002480B59CB000AF07F1A6
:1010A00024034C220021184635F084FC3B1D2022ED
:1010B0000021184635F07EFC3C4B4FF0FF32C3F860
:1010C000B020022016F08AFE00233B60384B9B695B
:1010D000374A23F440439361354B9B6903F4404303
:1010E0003B603B6800BF324B9B6903F40053B3F590
:1010F000005F14BF01230023DBB2002BF3D116F0F5
:101100005DFE2A4B1B6F294A23F018031367062341
:101110007B620123FB6201233B6340237B63022349
:10112000BB640023FB6404233B6508237B65022327
:10113000BB650223FB6502233B660C237B66002311
:10114000BB660023FB6607F12403184616F080FEF9
:101150000346002B14BF01230023DBB2002B01D078
:1011600001F0B4F93F237B600323BB600023FB60E5
:1011700000233B6100237B614023BB610023FB61B3
:1011800000233B623B1D0221184617F093FA0346E9
:10119000002B14BF01230023DBB2002B01D001F090
:1011A00095F900BF7037BD4680BD00BF00440258AE
:1011B0000048025880B588B000AF3B1D00221A607D
:1011C0005A609A60DA601A615A619A612E4B2F4A0E
:1011D0001A602D4B00225A602B4B08229A602A4B32
:1011E0000022DA60284B04221A61274B00221A756C
:1011F000254B00225A75244B01229A61224B002272
:101200001A77214B00225A621F4B00229A621E4B12
:101210000022DA621C4B00221A631B4B00225A6325
:10122000194B002283F83820174812F023FE03469A
:10123000002B14BF01230023DBB2002B01D001F0EF
:1012400045F9134B7B600623BB600723FB6040F22C
:10125000FF733B6104237B610023BB6100237B7729
:101260003B1D1946084813F033F90346002B14BF01
:1012700001230023DBB2002B01D001F027F900BFCE
:101280002037BD4680BD00BF442A00240021024013
:101290000020903680B500AF224B234A1A60214BC4
:1012A000224A5A601F4B00229A601E4B0122DA60CC
:1012B0001C4B00221A611B4B00225A61194B002261
:1012C0009A61184B0022DA61164B00221A62154807
:1012D00015F00CF80346002B14BF01230023DBB2EA
:1012E000002B01D001F0F2F800210E4816F06EFC40
:1012F0000346002B14BF01230023DBB2002B01D0D7
:1013000001F0E4F80021074816F0ABFC0346002B7F
:1013100014BF01230023DBB2002B01D001F0D6F86B
:1013200000BF80BDA82A002400540040BB7C700090
:1013300080B500AF224B234A1A60214B224A5A60E3
:101340001F4B00229A601E4B0122DA601C4B0022C8
:101350001A611B4B00225A61194B00229A61184BEB
:101360000022DA61164B00221A62154814F0BEFF03
:101370000346002B14BF01230023DBB2002B01D056
:1013800001F0A4F800210E4816F020FC0346002BC3
:1013900014BF01230023DBB2002B01D001F096F82B
:1013A0000021074816F05DFC0346002B14BF012303
:1013B0000023DBB2002B01D001F088F800BF80BD14
:1013C000FC2A0024005C0040BB7C700080B500AFAC
:1013D0000E4B0F4A1A600D4B06225A600B4B40F61B
:1013E000FF72DA60094B40F6FF729A60074816F008
:1013F00084FC0346002B14BF01230023DBB2002B27
:1014000001D001F063F800BF80BD00BF502B002465
:101410000048005880B500AF134B144A1A60124BB5
:1014200000225A60104B7F229A600F4BFF22DA6035
:101430000D4B00221A610C4B00229A610A4B4FF0AF
:101440008042DA61084B00225A6107481AF00AF913
:101450000346002B14BF01230023DBB2002B01D075
:1014600001F034F800BF80BD602B0024004000581C
:1014700080B500AF294B2A4A1A60284B4FF48002EE
:101480005A60264B00229A60244B0722DA60234BD5
:1014900000221A61214B00225A61204B4FF08062DA
:1014A0009A611E4B0022DA611C4B00221A621B4B10
:1014B00000225A62194B00229A62184B0022DA620B
:1014C000164B4FF080425A63144B00229A63134B21
:1014D0000022DA63114B00221A64104B00225A6476
:1014E0000E4B00229A640D4B0022DA640B4B002253
:1014F0001A650A4B00225A65084B00229A65074874
:101500001AF0F4FB0346002B14BF01230023DBB2C7
:10151000002B01D000F0DAFF00BF80BD882B002433
:101520000030014080B500AF124B134A1A60114BD6
:1015300047225A600F4B00229A600E4B4FF6FF7203
:10154000DA600C4B00221A610A4B00225A61094BE7
:1015500000229A6107481BF02AFB0346002B14BFA8
:1015600001230023DBB2002B01D000F0AFFF00BF4E
:1015700080BD00BFD83000240048014080B500AFD6
:101580002C4B2D4A1A602B4B4FF4E1325A60294BF9
:1015900000229A60274B0022DA60264B00221A6153
:1015A000244B0C225A61234B00229A61214B0022CA
:1015B000DA61204B00221A621E4B00225A621D4B38
:1015C00000229A621B481BF0AFFD0346002B14BF9C
:1015D00001230023DBB2002B01D000F077FF0021B4
:1015E00014481EF0B8FC0346002B14BF012300234F
:1015F000DBB2002B01D000F069FF00210D481EF086
:10160000E8FC0346002B14BF01230023DBB2002BB0
:1016100001D000F05BFF07481EF064FC0346002B7E
:1016200014BF01230023DBB2002B01D000F04EFFDA
:1016300000BF80BD102C0024004C004080B500AFDE
:101640002C4B2D4A1A602B4B4FF4E1325A60294B38
:1016500000229A60274B0022DA60264B00221A6192
:10166000244B0C225A61234B00229A61214B002209
:10167000DA61204B00221A621E4B00225A621D4B77
:1016800000229A621B481BF04FFD0346002B14BF3B
:1016900001230023DBB2002B01D000F017FF002153
:1016A00014481EF058FC0346002B14BF01230023EE
:1016B000DBB2002B01D000F009FF00210D481EF025
:1016C00088FC0346002B14BF01230023DBB2002B50
:1016D00001D000F0FBFE07481EF004FC0346002B7F
:1016E00014BF01230023DBB2002B01D000F0EEFE7B
:1016F00000BF80BDDC2C00240050004080B500AF4E
:101700002C4B2D4A1A602B4B4FF4E1325A60294B77
:1017100000229A60274B0022DA60264B00221A61D1
:10172000244B0C225A61234B00229A61214B002248
:10173000DA61204B00221A621E4B00225A621D4BB6
:1017400000229A621B481BF0EFFC0346002B14BFDB
:1017500001230023DBB2002B01D000F0B7FE0021F3
:1017600014481EF0F8FB0346002B14BF012300238E
:10177000DBB2002B01D000F0A9FE00210D481EF0C5
:1017800028FC0346002B14BF01230023DBB2002BEF
:1017900001D000F09BFE07481EF0A4FB0346002B7F
:1017A00014BF01230023DBB2002B01D000F08EFE1A
:1017B00000BF80BDA82D00240010014080B500AFFF
:1017C0002C4B2D4A1A602B4B4FF4E1325A60294BB7
:1017D00000229A60274B0022DA60264B00221A6111
:1017E000244B0C225A61234B00229A61214B002288
:1017F000DA61204B00221A621E4B00225A621D4BF6
:1018000000229A621B481BF08FFC0346002B14BF7A
:1018100001230023DBB2002B01D000F057FE002192
:1018200014481EF098FB0346002B14BF012300232D
:10183000DBB2002B01D000F049FE00210D481EF064
:10184000C8FB0346002B14BF01230023DBB2002B8F
:1018500001D000F03BFE07481EF044FB0346002B7E
:1018600014BF01230023DBB2002B01D000F02EFEB9
:1018700000BF80BD742E00240044004080B500AF3E
:101880002C4B2D4A1A602B4B4FF4E1325A60294BF6
:1018900000229A60274B0022DA60264B00221A6150
:1018A000244B0C225A61234B00229A61214B0022C7
:1018B000DA61204B00221A621E4B00225A621D4B35
:1018C00000229A621B481BF02FFC0346002B14BF1A
:1018D00001230023DBB2002B01D000F0F7FD002133
:1018E00014481EF038FB0346002B14BF01230023CD
:1018F000DBB2002B01D000F0E9FD00210D481EF005
:1019000068FB0346002B14BF01230023DBB2002B2E
:1019100001D000F0DBFD07481EF0E4FA0346002B7F
:1019200014BF01230023DBB2002B01D000F0CEFD59
:1019300000BF80BD402F00240048004080B500AFAC
:101940002C4B2D4A1A602B4B4FF416525A60294BE0
:1019500000229A60274B0022DA60264B00221A618F
:10196000244B0C225A61234B00229A61214B002206
:10197000DA61204B00221A621E4B00225A621D4B74
:1019800000229A621B481BF0CFFB0346002B14BFBA
:1019900001230023DBB2002B01D000F097FD0021D2
:1019A00014481EF0D8FA0346002B14BF012300236D
:1019B000DBB2002B01D000F089FD00210D481EF0A4
:1019C00008FB0346002B14BF01230023DBB2002BCE
:1019D00001D000F07BFD07481EF084FA0346002B7F
:1019E00014BF01230023DBB2002B01D000F06EFDF9
:1019F00000BF80BD0C3000240014014080B58AB0C7
:101A000000AF07F1140300221A605A609A60DA608E
:101A10001A61584BD3F84031564A43F00403C2F8D8
:101A20004031544BD3F8403103F004033B613B6930
:101A3000504BD3F840314F4A43F00103C2F84031D4
:101A40004C4BD3F8403103F00103FB60FB68494B7A
:101A5000D3F84031474A43F00203C2F84031454BC6
:101A6000D3F8403103F00203BB60BB68414BD3F8AD
:101A70004031404A43F00803C2F840313D4BD3F8AF
:101A8000403103F008037B607B68002248F21001BC
:101A9000394814F0F7FB002240F20641374814F0B1
:101AA000F1FB01224CF21821344814F0EBFB012227
:101AB0004FF48051324814F0E5FB012204213148F3
:101AC00014F0E0FB4FF400537B610023BB61002363
:101AD000FB6107F114031946294814F001F948F293
:101AE00010037B610123BB610023FB6100233B6288
:101AF00007F114031946204814F0F2F84CF21E6363
:101B00007B610123BB610023FB6100233B6207F182
:101B100014031946194814F0E3F84FF480537B611D
:101B20000123BB610023FB6100233B6207F1140327
:101B30001946134814F0D4F804237B610123BB61D8
:101B40000023FB6100233B6207F1140319460D4893
:101B500014F0C6F860237B610023BB610023FB61A6
:101B600007F114031946054814F0BAF800BF2837E6
:101B7000BD4680BD004402580000025800040258CF
:101B800000080258000C025880B485B000AF03462C
:101B9000FB71284BFB60FB79072B43D801A252F85D
:101BA00023F000BFC51B0008D11B0008DD1B000887
:101BB000E91B0008F51B0008011C00080D1C0008AB
:101BC000191C00081C4BFB601C4B00221A7029E0FA
:101BD0001B4BFB60194B01221A7023E0194BFB6071
:101BE000164B02221A701DE0174BFB60134B0322A9
:101BF0001A7017E0154BFB60104B04221A7011E0AD
:101C0000134BFB600D4B05221A700BE0114BFB6070
:101C10000A4B06221A7005E00F4BFB60074B0722A8
:101C20001A7000BFFB6818461437BD465DF8047B88
:101C3000704700BF58A203085CA20308503100247B
:101C400064A2030874A203088CA20308A8A20308D4
:101C5000B8A20308E8A2030804A3030880B483B071
:101C600000AF3D4BD3F8303103F08043002B14BF5D
:101C700001230023DBB2002B02D00123FB715BE0C8
:101C8000354BD3F8303103F08053002B14BF0123C0
:101C90000023DBB2002B02D00223FB714CE02E4B61
:101CA000D3F8303103F08063002B14BF01230023ED
:101CB000DBB2002B02D00323FB713DE0264BD3F8AF
:101CC000303103F08073002B14BF01230023DBB2FB
:101CD000002B02D00423FB712EE01F4BD3F83031D0
:101CE00003F40003002B14BF01230023DBB2002BFD
:101CF00002D00523FB711FE0174BD3F8303103F4FA
:101D00008003002B14BF01230023DBB2002B02D081
:101D10000623FB7110E0104BD3F8303103F40013AD
:101D2000002B14BF01230023DBB2002B02D00723BA
:101D3000FB7101E00023FB71074BD3F83031064AF9
:101D400043F48033C2F83031FB7918460C37BD4676
:101D50005DF8047B704700BF0044025880B586B030
:101D600000AF78604FF47A701EF03DFAAF4B01225D
:101D70001A70AF4B0022DA72AD4B00229A724FF408
:101D8000C8620021AB4834F015FEAB49AB4833F0D4
:101D9000C3FDAB482FF024FDAA482FF031FDAA481F
:101DA0002FF02EFDFFF75AFF03461A46A74B1A7075
:101DB000A64B1B781846FFF7E7FE03461A46A449D0
:101DC0009E4833F0A9FDA34832F082FB38613A699E
:101DD000A1499A4833F0A0FD47F6C0719F482FF003
:101DE00047F90346FB73FB7BA12B5AD09C499348D0
:101DF00033F092FD99482FF0C3F847F6C072A12145
:101E000096482FF00DF90022002194482FF054FA43
:101E10000022002191482FF0CBFA002200218F48A8
:101E20002FF03EFB4FF4417200218C482FF04CF90B
:101E30004FF44072002189482FF046F94FF4427266
:101E4000002186482FF040F94FF47A71854832F02E
:101E5000DDF90346012B0CBF01230023DBB2002B6D
:101E60000DD08149754833F057FD7A4832F0E6FBD2
:101E70007E49724833F050FD7A4832F0E1F96C48FF
:101E800032F084FF7A48FEF77DFE7A4823F07EFD2B
:101E9000794802F021F8794827F0ECF8FA201EF092
:101EA000A2F9634832F0A4FF6248FEF785FF4FF4C1
:101EB000C86260496E4835F0B0FC6F4802F036F8F1
:101EC000644832F0C6FC634832F0ABFB614832F044
:101ED000ADFD604832F00CFD5E4832F03BFD5D48E0
:101EE00032F05CFD5B4832F07DFD514B0022DA722E
:101EF0004F4B01229A72604B01221A714D4BD3F85D
:101F000034361A465E494D4833F006FD494B93F886
:101F10003C361A465B49494833F0FEFC5A4A5B4955
:101F2000464833F0F9FC5A4A5A49444833F0F4FC25
:101F3000594A5A49414833F0EFFC594A59493F48F8
:101F400033F0EAFC584A59493C4833F0E5FC394B38
:101F5000B3F83A361A465649384833F0DDFC354B6B
:101F6000B3F838361A465349344833F0D5FC524A50
:101F70005249324833F0D0FC514A52492F4833F08D
:101F8000CBFC51482FF0E0FD2A4B93F83C36012B57
:101F900040F0D080374823F065FD4FF4FA701EF012
:101FA00022F94A4A4A49254833F0B6FC494A4A4987
:101FB000224833F0B1FC494A4949204833F0ACFC8F
:101FC000484A49491D4833F0A7FC484A48491B483C
:101FD00033F0A2FC474A4849184833F09DFC474A71
:101FE0004749164833F098FC464A4749134833F0AE
:101FF00093FC464A4649114833F08EFC454A46490F
:102000000E4833F089FC454A45490C4833F084FCBE
:10201000444A4549094833F07FFC444A444907484B
:1020200033F07AFC134821F05CFAAEE06031002412
:102030000CBE0424B02100241CA30308D0D2042425
:1020400008B0042414B0042420B004245131002426
:102050007CA30308F8BD0424A0A30308FCAF042458
:10206000B4A30308BCBC0424E4A30308F8A3030836
:10207000701B0024B8350424C8310024906E042459
:102080000CA4030838A40308B42200246CA4030899
:10209000742500249CA4030874240024C0A403080D
:1020A000B4240024E4A40308342200240CA503086B
:1020B00044A5030868A50308BE270024A0A50308BB
:1020C000CE270024C0A5030868B00424F42300240C
:1020D000E4A50308B423002408A60308342400243C
:1020E00028A60308383304244CA60308B833042474
:1020F0006CA60308383404248CA60308B8340424DE
:10210000ACA6030838350424CCA60308783304248D
:10211000ECA60308F833042410A703087834042439
:1021200034A70308F834042458A703087835042496
:102130007CA70308944B93F83C36032B25D1934A94
:102140009349944833F0E8FB934A9449914833F01B
:10215000E3FB934A93498F4833F0DEFB924A93495D
:102160008C4833F0D9FB924A92498A4833F0D4FB29
:10217000914A9249874833F0CFFB914A914985486B
:1021800033F0CAFB90482FF0BDFCFA201EF02BF86C
:102190008E4832F0D7FE0023FB750023BB738C48BA
:1021A00015F0FCFD4FF47A701EF01DF8894833F0ED
:1021B0001BF80346884A13604FF47A71874832F05F
:1021C00025F80346012B0CBF01230023DBB2002BB3
:1021D00000F0AF80824B9B7A012B40F0A780804BB0
:1021E000DB7A012B40F0A2807E4B2B22A3F85A20F1
:1021F0000123FB757B4BB3F95A301A467A4965487F
:1022000033F08AFBFB7D012B40F08C80774B1A78F2
:10221000744B83F8582076495E4833F07DFB6D4857
:1022200032F0E2FF03466F4A53644FF44271714843
:102230002EF082FF0346704A13606F4B1B689BB2FF
:1022400019466C482FF068F903466C4A13606B4BD3
:102250001B68644A13646A494E4833F05DFB694A5F
:102260006949604834F01EFB684B1B78012B05D18F
:10227000674A6549674834F015FB04E0664A6249DD
:10228000644834F00FFB6549424833F045FB802237
:102290000021634834F08EFB84225249604835F0B7
:1022A000BCFA0023BB7512E0BB7D5D4A1344BA7DC6
:1022B0005C49184634F0F6FABB7D594AD35C1A469D
:1022C0005949344833F028FBBB7D0133BB7597F97E
:1022D0001630002BE8DA55492E4833F01DFB5449DF
:1022E0002C4833F019FB4E49524832F0C3FB524997
:1022F000284833F011FB5149264833F00DFB3F4B82
:102300001B6801333D4A13603C4B1B683A4A126814
:1023100092B2194637482FF0C3F849491D4833F0A7
:10232000FBFA03E047491B4833F0F6FA2B4831F03B
:1023300087FF284832F058FF0346434A1360FB7D6D
:10234000012B14D1104BB3F8383618463E4B1A689F
:10235000214B1B68D31A0C4AB2F83826B3FBF2F1B2
:1023600001FB02F29B1AC31A384A136002E0374B92
:102370000A221A60354B1B684FF47A7202FB03F392
:1023800018461DF030FF0AE7B0210024B4250024D0
:10239000A0A70308D0D20424F4250024C8A703086A
:1023A00034260024F0A703087426002420A803087C
:1023B000B426002450A80308F42600247CA80308AF
:1023C00034270024A4A8030868B004241CBE0424F5
:1023D000502B002470CA042454310024CCBC0424A3
:1023E0000CBE0424681A0024D4A8030866CA042476
:1023F000F4A80308FCAF0424F4AF0424F0AF0424D1
:1024000000A90308742500240CA9030864CA042445
:1024100010A90308B01A002418A9030820A903086A
:10242000F8BC04242CA9030830A9030834A9030824
:1024300038A90308F8BD04244CA9030860A90308BF
:102440006CA9030878A90308583100245C310024E2
:1024500080B584B000AF3B4600221A605A609A6093
:10246000DA6012F053FE01233B7000237B700023DF
:102470007B601F233B7287237B720023BB72002388
:10248000FB7201233B7301237B730023BB73002387
:10249000FB733B46184612F071FE042012F04EFE0C
:1024A00000BF1037BD4680BD80B582B000AF7860F8
:1024B0007B681B68044A934201D111F055FA00BFB2
:1024C0000837BD4680BD00BF0008004080B400AFA3
:1024D00072B600BF00BFFDE780B500AF05490648F2
:1024E0002FF03AFA88220449044833F07FF900BFFC
:1024F00080BD00BFA82A0024643100246C31002470
:1025000080B500AF02482FF03BFA00BF80BD00BF8E
:102510006431002480B500AFFFF7DEFF80BD80B5D9
:1025200000AFFFF7EDFF80BD80B582B000AF0C4B70
:10253000D3F854310A4A43F00203C2F85431084B2D
:10254000D3F8543103F002037B607B6800220F2133
:102550006FF0010012F09FFD00BF0837BD4680BD3F
:102560000044025880B5BAB000AF786007F1D403D8
:1025700000221A605A609A60DA601A6107F110034B
:10258000C0220021184634F015FA7B681B682B4ADC
:1025900093424FD14FF400224FF00003C7E90423C8
:1025A0000423BB610823FB6108233B6202237B6297
:1025B0000223BB62C023FB6200233B6300237B63D7
:1025C0000023C7F8BC3007F11003184616F040FC92
:1025D0000346002B01D0FFF779FF194BD3F83831B0
:1025E000174A43F02003C2F83831154BD3F838317D
:1025F00003F02003FB60FB68114BD3F84031104A15
:1026000043F00403C2F840310D4BD3F8403103F0DE
:102610000403BB60BB680823C7F8D4300323C7F8A2
:10262000D8300023C7F8DC3007F1D4031946054839
:1026300013F056FB00BFE837BD4680BD00210240C5
:10264000004402580008025880B5BEB000AF786060
:1026500007F1E40300221A605A609A60DA601A6196
:1026600007F12003C0220021184634F0A3F97B684B
:102670001B68704A934257D14FF008024FF0000395
:10268000C7E908230023C7F8AC3007F12003184638
:1026900016F0DEFB0346002B01D0FFF717FF664B59
:1026A000D3F84031644A43F00203C2F84031624B30
:1026B000D3F8403103F00203FB61FB694FF4C073B0
:1026C000C7F8E4301223C7F8E8300023C7F8EC302D
:1026D0000023C7F8F0300423C7F8F43007F1E4030F
:1026E0001946564813F0FCFA534BD3F84831524A76
:1026F00043F40013C2F848314F4BD3F8483103F488
:102700000013BB61BB69002205211F2012F0C3FC2E
:102710001F2012F0DAFC00220521202012F0BBFC61
:10272000202012F0D2FC80E07B681B68444A934270
:102730007BD14FF008024FF00003C7E908230023C4
:10274000C7F8AC3007F12003184616F081FB0346AA
:10275000002B01D0FFF7BAFE374BD3F84031364A91
:1027600043F00403C2F84031334BD3F8403103F057
:1027700004037B617B69304BD3F840312E4A43F030
:102780000103C2F840312C4BD3F8403103F0010370
:102790003B613B694FF40073C7F8E4301223C7F87C
:1027A000E8300023C7F8EC300023C7F8F0300423EA
:1027B000C7F8F43007F1E4031946224813F090FA01
:1027C0004FF48073C7F8E4301223C7F8E8300023D1
:1027D000C7F8EC300023C7F8F0300423C7F8F43012
:1027E00007F1E4031946184813F07AFA124BD3F8AC
:1027F0004831114A43F40003C2F848310E4BD3F874
:10280000483103F40003FB60FB68002205214820E7
:1028100012F041FC482012F058FC0022052149200A
:1028200012F039FC492012F050FC00BFF837BD46C9
:1028300080BD00BF0054004000440258000402580C
:10284000005C0040000802580000025880B5B2B099
:1028500000AF786007F10803C0220021184634F069
:10286000A9F87B681B68104A934219D14FF4800283
:102870004FF00003C7E902234FF48073C7F8BC3060
:1028800007F10803184616F0E3FA0346002B01D0BF
:10289000FFF71CFE054B1B6F044A43F4004313670C
:1028A00000BFC837BD4680BD0040005800440258F4
:1028B00080B5BAB000AF786007F1D40300221A6087
:1028C0005A609A60DA601A6107F11003C022002191
:1028D000184634F06FF87B681B682A4A93424CD143
:1028E0004FF480524FF00003C7E9042300237B67B5
:1028F00007F11003184616F0ABFA0346002B01D07F
:10290000FFF7E4FD204BD3F850311F4A43F48053C6
:10291000C2F850311C4BD3F8503103F48053FB60A4
:10292000FB68194BD3F84031174A43F00103C2F852
:102930004031154BD3F8403103F00103BB60BB6855
:10294000E023C7F8D4300223C7F8D8300023C7F8F3
:10295000DC300023C7F8E0300523C7F8E43007F186
:10296000D4031946094813F0BBF90022052123209E
:1029700012F091FB232012F0A8FB00BFE837BD4600
:1029800080BD00BF003001400044025800000258E2
:1029900080B485B000AF78607B681B680B4A9342B7
:1029A0000ED10B4BD3F85031094A43F48023C2F8BF
:1029B0005031074BD3F8503103F48023FB60FB68A0
:1029C00000BF1437BD465DF8047B704700480140E6
:1029D0000044025880B5C4B000AF07F58873A3F572
:1029E0008673186007F1FC0300221A605A609A602F
:1029F000DA601A6107F13803C0220021184633F06B
:102A0000D9FF07F58873A3F586731B681B68AE4A68
:102A100093424FD14FF002024FF00003C7E90E235B
:102A20000023C7F8B83007F13803184616F010FA3B
:102A30000346002B01D0FFF749FDA44BD3F84831E2
:102A4000A24A43F40023C2F84831A04BD3F84831DE
:102A500003F400237B637B6B9C4BD3F840319B4A90
:102A600043F00103C2F84031984BD3F8403103F0F2
:102A700001033B633B6B4FF4C053C7F8FC300223A8
:102A8000C7F800310023C7F804310023C7F8083124
:102A90000623C7F80C3107F1FC0319468C4813F0E4
:102AA0001FF900220521342012F0F5FA342012F02B
:102AB0000CFBDFE107F58873A3F586731B681B68C1
:102AC000844A93424FD14FF002024FF00003C7E90E
:102AD0000E230023C7F8B83007F13803184616F064
:102AE000B7F90346002B01D0FFF7F0FC774BD3F882
:102AF0004831764A43F48013C2F84831734BD3F817
:102B0000483103F48013FB62FB6A704BD3F8403109
:102B10006E4A43F00203C2F840316C4BD3F84031A7
:102B200003F00203BB62BB6A4FF44053C7F8FC30AA
:102B30000223C7F800310023C7F804310023C7F887
:102B400008310E23C7F80C3107F1FC03194662481F
:102B500013F0C6F800220521352012F09CFA35202A
:102B600012F0B3FA86E107F58873A3F586731B6844
:102B70001B685A4A93424FD14FF001024FF00003B5
:102B8000C7E90E230023C7F8BC3007F13803184605
:102B900016F05EF90346002B01D0FFF797FC4B4B74
:102BA000D3F85031494A43F01003C2F85031474B33
:102BB000D3F8503103F010037B627B6A434BD3F8A8
:102BC0004031424A43F00103C2F840313F4BD3F851
:102BD000403103F001033B623B6A4FF4C063C7F826
:102BE000FC300223C7F800310023C7F8043100236A
:102BF000C7F808310723C7F80C3107F1FC03194661
:102C0000334813F06DF800220521252012F043FA15
:102C1000252012F05AFA2DE107F58873A3F5867383
:102C20001B681B682E4A93425CD14FF002024FF0A2
:102C30000003C7E90E230023C7F8B83007F13803B3
:102C4000184616F005F90346002B01D0FFF73EFCAD
:102C50001E4BD3F848311D4A43F40033C2F84831C3
:102C60001A4BD3F8483103F40033FB61FB69174B6F
:102C7000D3F84031154A43F00103C2F84031134BF9
:102C8000D3F8403103F00103BB61BB690C23C7F8E3
:102C9000FC300223C7F800310023C7F804310023B9
:102CA000C7F808310723C7F80C3107F1FC031946B0
:102CB000074813F015F800220521262012F0EBF941
:102CC000262012F002FAD5E0004C004000440258E1
:102CD000000002580050004000040258001001405B
:102CE0000044004007F58873A3F586731B681B68D2
:102CF000634A934257D14FF002024FF00003C7E9F5
:102D00000E230023C7F8B83007F13803184616F031
:102D10009FF80346002B01D0FFF7D8FB594BD3F89F
:102D20004831584A43F48023C2F84831554BD3F810
:102D3000483103F480237B617B69524BD3F84031E7
:102D4000504A43F00403C2F840314E4BD3F84031AF
:102D500003F0040207F58873A3F580731A6007F582
:102D60008873A3F580731B684FF44063C7F8FC3089
:102D70000223C7F800310023C7F804310023C7F845
:102D800008310723C7F80C3107F1FC0319463E4808
:102D900012F0A6FF00220521272012F07CF927203F
:102DA00012F093F966E007F58873A3F586731B6844
:102DB0001B68364A93425DD14FF001024FF0000389
:102DC000C7E90E230023C7F8BC3007F138031846C3
:102DD00016F03EF80346002B01D0FFF777FB294B96
:102DE000D3F85031274A43F02003C2F85031254B25
:102DF000D3F8503103F0200207F58873A3F58273EE
:102E00001A6007F58873A3F582731B681D4BD3F80E
:102E100040311C4A43F00403C2F84031194BD3F847
:102E2000403103F0040207F58873A3F584731A6038
:102E300007F58873A3F584731B68C023C7F8FC30BB
:102E40000223C7F800310023C7F804310023C7F874
:102E500008310723C7F80C3107F1FC0319460A486B
:102E600012F03EFF00220521472012F014F94720FE
:102E700012F02BF900BF07F58877BD4680BD00BF73
:102E80000048004000440258000802580014014065
:102E900080B582B000AF78607B681B68414A93427E
:102EA00010D1414BD3F848313F4A23F40023C2F8F4
:102EB00048314FF4C0513D4813F0C2F8342012F0AD
:102EC00012F96AE07B681B68394A934210D1364B8D
:102ED000D3F84831344A23F48013C2F848314FF410
:102EE0004051344813F0ACF8352012F0FCF854E0AF
:102EF0007B681B68304A934210D12B4BD3F850317A
:102F0000294A23F01003C2F850314FF4C06127481A
:102F100013F096F8252012F0E6F83EE07B681B6877
:102F2000264A93420FD1204BD3F848311E4A23F44E
:102F30000033C2F848310C211C4813F081F82620D8
:102F400012F0D1F829E07B681B681D4A934210D12A
:102F5000154BD3F84831144A23F48023C2F8483182
:102F60004FF44061174813F06BF8272012F0BBF8BC
:102F700013E07B681B68144A93420ED10A4BD3F8C6
:102F80005031094A23F02003C2F85031C0210D48C6
:102F900013F056F8472012F0A6F800BF0837BD46D8
:102FA00080BD00BF004C00400044025800000258A1
:102FB000005000400004025800100140004400404E
:102FC00000480040000802580014014080B590B04D
:102FD00000AF78607B680F2B27D8002279681E200D
:102FE00012F059F81E2012F070F8294A7B6813601D
:102FF000284BD3F84831274A43F00403C2F848313C
:10300000244BD3F8483103F00403FB60FB6807F15D
:10301000100207F114031146184615F0D7FEBB6ADB
:10302000BB63BB6B002B06D101E001232BE015F045
:10303000A1FEF86304E015F09DFE03465B00FB6310
:10304000FB6B154AA2FB03239B0C013B7B63134BD9
:10305000134A1A60114B40F2E732DA600F4A7B6B79
:1030600053600E4B00221A610C4B00229A600B48F1
:1030700019F09DFD0346002B04D1084819F0EEFD20
:10308000034600E0012318464037BD4680BD00BF1F
:103090000C1800240044025883DE1B4374310024C2
:1030A0000008004080B400AF00BFFDE780B400AF6F
:1030B00000BFFDE780B400AF00BFFDE780B400AF04
:1030C00000BFFDE780B400AF00BFFDE780B400AFF4
:1030D00000BFBD465DF8047B7047000080B500AFBF
:1030E000024819F033FE00BF80BD00BF74310024D8
:1030F00080B500AF024813F0C3FB00BF80BD00BF26
:10310000A82A002480B500AF024813F0D3FB00BF0B
:1031100080BD00BFA82A002480B500AF024819F086
:1031200043FA00BF80BD00BF882B002480B500AFEC
:1031300002481AF0FFFA00BF80BD00BFA82D00248E
:1031400080B500AF02481AF0F5FA00BF80BD00BF9D
:10315000742E002480B500AF02481AF0EBFA00BFCD
:1031600080BD00BF402F002480B500AF02481AF098
:10317000E1FA00BF80BD00BF102C002480B500AF75
:1031800002481AF0D7FA00BF80BD00BFDC2C002433
:1031900080B500AF02481AF0CDFA00BF80BD00BF75
:1031A0000C30002480B500AF024813F069FB00BF6B
:1031B00080BD00BFFC2A002480B500AF024813F098
:1031C00079FB00BF80BD00BFFC2A002480B400AFA3
:1031D00001231846BD465DF8047B704780B582B078
:1031E00000AF7860396034F0E1FA034616221A60C5
:1031F0004FF0FF3318460837BD4680BD80B582B01A
:1032000000AF78604FF0FF317868FFF7E7FF00BF4D
:10321000FDE780B586B000AFF860B9607A60002342
:103220007B610AE0AFF300800146BB685A1CBA60BC
:10323000CAB21A707B6901337B617A697B689A42F2
:10324000F0DB7B6818461837BD4680BD80B586B078
:1032500000AFF860B9607A6000237B6109E0BB6869
:103260005A1CBA601B781846AFF300807B690133A3
:103270007B617A697B689A42F1DB7B681846183774
:10328000BD4680BD80B483B000AF78604FF0FF339F
:1032900018460C37BD465DF8047B704780B483B098
:1032A00000AF786039603B684FF400525A600023E9
:1032B00018460C37BD465DF8047B704780B483B078
:1032C00000AF7860012318460C37BD465DF8047BDB
:1032D000704780B485B000AFF860B9607A600023B1
:1032E00018461437BD465DF8047B704780B586B03C
:1032F00000AF7860144A154BD31A7B617B693B6140
:10330000134B1B68002B02D1114B124A1A60104B51
:103310001A687B6813443A699A4207D234F046FA35
:1033200003460C221A604FF0FF3309E0084B1B687C
:10333000FB60074B1A687B681344054A1360FB68FF
:1033400018461837BD4680BD000010240004000058
:10335000C431002450D4042480B400AF3E4BD3F8D1
:1033600088303D4A43F47003C2F888303B4B1B68F9
:1033700003F00F03022B07D8384B1B6823F00F0311
:10338000364A43F003031360354B1B68344A43F05D
:1033900001031360324B00221A61314B1A68304925
:1033A000304B13400B602D4B1B6803F00C03002BBC
:1033B00007D02A4B1B6823F00F03284A43F003036E
:1033C0001360274B00229A61254B0022DA61244BBF
:1033D00000221A62224B244A9A62214B234ADA6263
:1033E0001F4B234A1A631E4B00225A631C4B204A70
:1033F0009A631B4B0022DA63194B1D4A1A64184B5F
:1034000000225A64164B1B68154A23F4802313606C
:10341000134B00221A66124BD3F8343103F4805355
:10342000002B13D10E4BD3F834310D4A43F48053A3
:10343000C2F834310F4B43F2D2021A60084BD3F872
:103440003431074A23F48053C2F8343100BFBD46FB
:103450005DF8047B704700BF00ED00E000200052E3
:10346000004402587FEDF6EA000202020000FF016C
:10347000800201010040005280B400AF094BDB68BC
:10348000084A43F00203D36000BF064B5B6803F4B5
:103490000053002BF9D000BF00BFBD465DF8047B90
:1034A000704700BF0048025880B483B000AF786016
:1034B0007B681B6818460C37BD465DF8047B704777
:1034C00080B485B000AF78600323FB607B68033372
:1034D00023F0030318461437BD465DF8047B70479C
:1034E00080B483B000AF786039607B683A681A6056
:1034F0007B6818460C37BD465DF8047B704780B486
:1035000083B000AF78607B681B68002B0CBF012381
:103510000023DBB218460C37BD465DF8047B7047CC
:1035200080B582B000AF78607B681B68002B06D046
:103530007B681B681846FCF73BFF034600E000234E
:1035400018460837BD4680BD80B483B000AF7860B0
:1035500039607B681A683B6813441B7818460C373F
:10356000BD465DF8047B704780B483B000AF7860DF
:103570007B681B6818460C37BD465DF8047B7047B6
:1035800080B582B000AF786039607B683A681146D8
:103590001846FCF7ADFE034618460837BD4680BD09
:1035A00080B582B000AF7860396039687868FFF71D
:1035B000E7FF0346002B0CBF01230023DBB21846B4
:1035C0000837BD4680BD80B584B000AF786007F194
:1035D0000C0379681846FFF783FFFB68184610371D
:1035E000BD4680BD80B485B000AFF860B9607A6038
:1035F000FB68BA681A60FB687A685A60FB6818460C
:103600001437BD465DF8047B704780B483B000AFCB
:1036100078607B685B6818460C37BD465DF8047BB4
:10362000704780B483B000AF786039607B681A68F7
:103630003B6813441B7818460C37BD465DF8047B85
:10364000704780B584B000AFF860B9607A607A687E
:10365000B968F868FFF7C6FFF8681037BD4680BD47
:1036600080B485B000AFF860B9607A60FB70FB6829
:10367000BA681A60FB687A685A60FB68FA781A724E
:10368000FB6818461437BD465DF8047B704780B46C
:1036900083B000AF78607B681B6818460C37BD4666
:1036A0005DF8047B704780B483B000AF78607B68BE
:1036B0001B7A18460C37BD465DF8047B704780B412
:1036C00083B000AF78607B685B6818460C37BD46F6
:1036D0005DF8047B704780B582B000AF78603960D8
:1036E0003B681B68002B04D07B6818460EF026FC54
:1036F00003E07B6818460EF033FC00BF786808379B
:10370000BD4680BD80B483B000AF78607B6818464A
:103710000C37BD465DF8047B704780B483B000AFC2
:1037200078607B68B3F90A30002B06D07B68B3F968
:103730000A301B017A68134400E0002318460C3756
:10374000BD465DF8047B704780B483B000AF7860FD
:1037500039603B68002B05D03A687B68D31A1B118F
:103760001AB200E000227B685A8100BF0C37BD46C8
:103770005DF8047B704780B483B000AF7860396037
:103780003A687B68D31A1B111AB27B685A8100BF52
:103790000C37BD465DF8047B704780B584B000AF40
:1037A000F860384680E80E003B461846FFF77BFF7E
:1037B0000346002B07D0FB681B7A03F07F03DAB2C5
:1037C000FB681A7206E0FB681B7A63F07F03DAB2CB
:1037D000FB681A723B461846FFF759FF0246FB6822
:1037E000DA6000BF1037BD4680BD80B483B000AF43
:1037F00078607B68DB6818460C37BD465DF8047B53
:10380000704780B483B000AF78607B6800225A8133
:103810007B6800221A727B680022DA6000BF0C37D6
:10382000BD465DF8047B704780B485B000AFF8609A
:10383000B9607A60FB68BA681A60FB68BA685A6057
:10384000BB68002B03D0BA687B68134400E00023F8
:10385000FA689360BB68002B03D0BA687B68134496
:1038600000E00023FA68D360FB6800221A74FB684A
:1038700018461437BD465DF8047B704780B483B0AA
:1038800000AF78607B681B6818460C37BD465DF852
:10389000047B704780B483B000AF78607B681B7C8A
:1038A00018460C37BD465DF8047B704780B582B082
:1038B00000AF786078680EF063FB0346184608375F
:1038C000BD4680BD80B483B000AF786039607B684E
:1038D0005A683B681A447B689B689A4294BF0123EC
:1038E0000023DBB218460C37BD465DF8047B7047F9
:1038F00080B483B000AF786000BF0C37BD465DF880
:10390000047B704780B584B000AF78603960396857
:103910007868FFF7D7FF034683F00103DBB2002B83
:1039200004D07B6801221A7400230CE07B685B687A
:10393000FB607B685A683B681A447B685A60786809
:10394000FFF7D6FFFB6818461037BD4680BD80B52F
:1039500082B000AF7860396039687868FFF7B2FFED
:10396000034683F00103DBB2002B04D07B68012205
:103970001A74002308E07B689A683B685B421A442B
:103980007B689A607B689B6818460837BD4680BD97
:1039900080B483B000AF78607B6800221A7200BFE9
:1039A0000C37BD465DF8047B704780B483B000AF30
:1039B00078607B681B7A03F02003002B14BF01237F
:1039C0000023DBB218460C37BD465DF8047B704718
:1039D00080B582B000AF7860786800F050F8034698
:1039E000002B0CBF01230023DBB218460837BD466D
:1039F00080BD80B582B000AF78600021786800F0AB
:103A00004DF800BF0837BD4680BD80B584B000AF1B
:103A1000F860384680E80E003B461846FFF743FE44
:103A20000346002B04D00421F86800F037F803E0C7
:103A30000521F86800F032F83B461846FFF727FEEC
:103A40000246FB681A603B461846FFF738FE0246FE
:103A5000FB685A6000BF1037BD4680BD80B582B09C
:103A600000AF78602021786800F018F87B6818466D
:103A700000F0FBF87B6818460837BD4680BD80B46F
:103A800083B000AF78607B681B7A03F07F03DBB202
:103A900018460C37BD465DF8047B704780B483B090
:103AA00000AF78600B46FB707B681B7A23F07F03C6
:103AB000DAB27B681A727B681A7AFB781343DAB23F
:103AC0007B681A7200BF0C37BD465DF8047B7047F7
:103AD00080B483B000AF786039607B683A681A6060
:103AE0007B6818460C37BD465DF8047B704780B490
:103AF00083B000AF786039607B683A681A607B6891
:103B000018460C37BD465DF8047B704780B483B01F
:103B100000AF786000BF18460C37BD465DF8047BE7
:103B2000704780B483B000AF78607B685B681846EC
:103B30000C37BD465DF8047B704780B582B000AF9E
:103B4000786039607B68396818460EF035FA7B6812
:103B500018460837BD4680BD80B483B000AF78609A
:103B60007B6818460C37BD465DF8047B704784B00F
:103B7000B0B582B000AF786007F11C0080E80E009D
:103B80007B681D4607F11C040FCC0FC523682B6012
:103B90007B6818331846FFF7FBFE7B68184608372A
:103BA000BD46BDE8B04004B0704780B483B000AFFC
:103BB00078607B6818460C37BD465DF8047B70471B
:103BC00080B584B000AF78607B6803F1180207F11C
:103BD0000C0311461846FFF7B0FFFB681846103774
:103BE000BD4680BD80B582B000AF7860396038686E
:103BF00031F0E8FF034618460837BD4680BD80B562
:103C000082B000AF78603960386831F0E3FF00BF00
:103C10000837BD4680BD80B584B000AF786039609C
:103C20003868FFF743FEF860FB68002B01D10023E2
:103C300017E07B685B68002B09D07B685B68F968DC
:103C40001846FFF798FD7B68FA685A6005E07B68C4
:103C5000FA681A607B68FA685A60F868FFF7D1FD65
:103C6000FB6818461037BD4680BD80B483B000AFF6
:103C700078607B6800221A607B6800225A6000BF6F
:103C80000C37BD465DF8047B704780B584B000AF4B
:103C9000786039607B681B68FB600BE0F868FFF7B1
:103CA0003CFDB860BA683B689A4201D1FB6805E008
:103CB000BB68FB60FB68002BF0D10023184610376F
:103CC000BD4680BD80B584B000AF786039603B6888
:103CD000002B1AD039687868FFF7D7FFF86038688A
:103CE000FFF71BFDB860FB68002B04D0B968F868CB
:103CF000FFF72AFD02E07B68BA681A60BB68002BF8
:103D000004D17B68FA685A6000E000BF1037BD46F6
:103D100080BD80B584B000AF0346FB71012000F088
:103D200015F8F86002E0FB680233FB60FB681B7863
:103D3000002B05D0FB6801331B78FA799A42F2D147
:103D4000FB681B7818461037BD4680BD80B483B031
:103D500000AF0346FB71FB79002B01D0022300E08A
:103D60000023044A134418460C37BD465DF8047B13
:103D7000704700BFACA9030880B485B000AFF860FD
:103D8000B9607A60BA687B681A44FB681A60FB689D
:103D9000BA685A60FB6818461437BD465DF8047B64
:103DA000704780B483B000AF78600B46FB707B68CF
:103DB0005A687B681B689A4201D3002307E07B683E
:103DC0005B68591C7A685160FA781A7001231846AA
:103DD0000C37BD465DF8047B704780B487B000AFF8
:103DE000F860B9607A60FB685B687B610CE0BA6878
:103DF000531CBB60FB685B68581CF968486012780C
:103E00001A707B68013B7B60FB685A68FB681B6823
:103E10009A4202D27B68002BE9D1FB685A687B6921
:103E2000D31A18461C37BD465DF8047B70472DE950
:103E3000F04184B000AFF8603B1D83E806003B1DF5
:103E400018460EF0C8F80446F868FFF7BCFB0546B4
:103E50003B1D1846FFF765FE0646F868FFF756FE5D
:103E600043463246294620460EF0C1F800BF1037BF
:103E7000BD46BDE8F081000080B483B000AF78603B
:103E8000044A7B681A607B6818460C37BD465DF8AB
:103E9000047B70473CD1030880B483B000AF7860E6
:103EA000044A7B681A607B6818460C37BD465DF88B
:103EB000047B70473CD1030880B582B000AF7860C6
:103EC0007868FFF7E9FF1421786831F073FE7B68AA
:103ED00018460837BD4680BD80B584B000AF786015
:103EE00014220021064832F065FD786800F00AF8D7
:103EF0000346FB73FB7B18461037BD4680BD00BFF1
:103F0000C831002480B584B000AF78601422054920
:103F100005482DF0CBFB0346FB73FB7B184610379F
:103F2000BD4680BDC8310024FCAF042480B582B0FA
:103F300000AF78601422044904482DF0CEFB00BF86
:103F40000837BD4680BD00BFC8310024FCAF042443
:103F50002DE9F04FDBB000AF07F5B473A3F5B273F2
:103F600018600A4607F5B473A3F5B3731A8007F116
:103F7000100322464FF4807118460EF054F8E84BB7
:103F8000C7F8A43007F14403C7F8A03007F11003C5
:103F90000833C7F89C30D7F8A430C7F89830D7F862
:103FA000A030D7F89C201A60D7F8A030D7F8982016
:103FB0005A6000BFDB4BC7F8C03007F14403C7F8B5
:103FC000BC30D7F8BC301A68D7F8BC305B68C7F88B
:103FD000B820C7F8B430D7F8B840D7F8B83003F1F4
:103FE0001805D7F8B400FFF7EEFA8046D7F8B860A6
:103FF000D7F8B400FFF78AFD7B7832464146284661
:104000000EF0A7FA0346C7F8B040C7F8AC3007F186
:104010009003D7F8AC1018460DF0BFFFD7F8B030BA
:10402000C7F8943000BF00BFD7F8C030C7F8A83039
:1040300007F1900393E80600D7F8A800FFF7F7FE12
:10404000D7F89430002B09D0D7F894301846FFF7F2
:1040500021FC034683F00103DBB2002BB24BC7F80F
:10406000D03007F14C03C7F8CC3007F11003083308
:10407000C7F8C830D7F8D030C7F8C430D7F8CC303C
:10408000D7F8C8201A60D7F8CC30D7F8C4205A60C7
:1040900000BFA64BC7F8E83007F14C03C7F8E4307F
:1040A000D7F8E4301A68D7F8E4305B68C7F8E02046
:1040B000C7F8DC30D7F8E040D7F8E03003F1180556
:1040C000D7F8DC00FFF77FFA8046D7F8E060D7F832
:1040D000DC00FFF71BFD3B783246414628460EF0D8
:1040E00038FA0346C7F8D840C7F8D43007F1880338
:1040F000D7F8D41018460DF050FFD7F8D830C7F8CD
:104100008C3000BF00BF07F5B473A3F5AE73D7F8CA
:10411000E8201A6007F10C0007F1880393E8060015
:104120000EF043F9D7F88C30002B09D0D7F88C303B
:104130001846FFF7AFFB034683F00103DBB2002B09
:104140007B4BC7F8F83007F15403C7F8F43007F198
:1041500010030833C7F8F030D7F8F830C7F8EC3060
:10416000D7F8F430D7F8F0201A60D7F8F430D7F841
:10417000EC205A6000BF6F4831F036F8024607F570
:10418000B473A3F586731A6007F15403C7F81031AE
:10419000D7F810311A68D7F810315B68C7F80C21CE
:1041A000C7F80831D7F80C41D7F80C3103F11805DE
:1041B000D7F80801FFF707FA8046D7F80C61D7F85F
:1041C0000801FFF7A3FC5B463246414628460EF045
:1041D000C0F90346C7F80441C7F8003107F180036E
:1041E000D7F8001118460DF0D8FED7F80431C7F8FB
:1041F000843000BF00BF07F15C03C7F8FC30D7F87C
:10420000FC30186807F1800393E806000EF0DEF832
:10421000D7F88430002B09D0D7F884301846FFF740
:1042200039FB034683F00103DBB2002B424BC7F896
:10423000203107F16003C7F81C3107F11003083380
:10424000C7F81831D7F82031C7F81431D7F81C3126
:10425000D7F818211A60D7F81C31D7F814215A6002
:1042600000BF07F16003C7F83831D7F838311A6852
:10427000D7F838315B68C7F83421C7F83031D7F840
:104280003441D7F8343103F11805D7F83001FFF77E
:104290009AF98046D7F83461D7F83001FFF736FC39
:1042A00053463246414628460EF053F90346C7F8B6
:1042B0002C41C7F8283107F17803D7F828111846A0
:1042C0000DF06BFED7F82C31FB6700BF00BF1B4B16
:1042D000C7F82431D7F82431188807F1780393E818
:1042E00006000EF08AF8FB6F002B08D0FB6F184613
:1042F000FFF7D0FA034683F00103DBB2002B104B2B
:10430000C7F8483107F16803C7F8443107F11003D3
:104310000833C7F84031D7F84831C7F83C3111E0CD
:10432000C0A90308C8A90308DCA903087425002450
:10433000E8A9030870CA0424F4A90308C66E04247B
:1043400000AA0308D7F84431D7F840211A60D7F8FB
:104350004431D7F83C215A6000BF3D4BC7F860316B
:1043600007F16803C7F85C31D7F85C311A68D7F8F1
:104370005C315B68C7F85821C7F85431D7F8584109
:10438000D7F8583103F11805D7F85401FFF71BF996
:104390008046D7F85861D7F85401FFF7B7FB4B4672
:1043A0003246414628460EF0D4F80346C7F850413D
:1043B000C7F84C3107F17003D7F84C1118460DF0CF
:1043C000ECFDD7F850317B6700BF00BF07F5B47331
:1043D000A3F5B073D7F860211A6007F1080007F160
:1043E000700393E806000DF0E0FF7B6F002B08D010
:1043F0007B6F1846FFF74EFA034683F00103DBB2EA
:10440000002B07F5B473A3F5B3731A8807F5B473DB
:10441000A3F5B27307F1100019680DF03CFE07F523
:10442000B473A3F5B2731868FBF7C2FF0346A7F88D
:104430006631B7F8664107F1100318460DF01AFE11
:104440002346184607F5B677BD46BDE8F08F00BF96
:10445000DC9E04242DE9F04FADF2AC6D00AF07F502
:10446000D563A3F28463186007F5D563A3F286626F
:104470000B4613800023A7F8A63607F5D563A3F2F1
:104480001C631A460023136053609360D360E24BB1
:1044900093F83C36032B02F00F8407F128032246E1
:1044A0004FF4806118460DF0BEFDDC4BC7F8303686
:1044B00007F19C03C7F82C3607F128030833C7F827
:1044C0002836D7F83036C7F82436D7F82C26D7F850
:1044D00028361360D7F82C26D7F82436536000BF4F
:1044E000CF4BC7F84C3607F19C03C7F84836D7F8CE
:1044F00048361A68D7F848365B68C7F84426C7F8C4
:104500004036D7F84436FB61D7F8443603F1180635
:10451000D7F84006FFF757F80546D7F84446D7F8CE
:104520004006FFF7F3FA43462246294630460EF08E
:1045300010F80346FA69C7F83C26C7F8383607F57D
:10454000C473D7F8381618460DF027FD07F5D56364
:10455000A3F5A462D7F83C36536000BF00BFD7F87C
:104560004C36C7F8343607F5D563A3F5A46393E852
:104570000600D7F83406FFF75AFC07F5D563A3F514
:10458000A4635B68002B0CD007F5D563A3F5A46387
:104590005B681846FFF77EF9034683F00103DBB240
:1045A000002BA04BC7F85C3607F1A403C7F85836B8
:1045B00007F128030833C7F85436D7F85C36C7F834
:1045C0005036D7F85826D7F854361360D7F85826FF
:1045D000D7F85036536000BF934BC7F8743607F1D5
:1045E000A403C7F87036D7F870361A68D7F8703653
:1045F0005B68C7F86C26C7F86836D7F86C36FB617D
:10460000D7F86C3603F11806D7F86806FEF7DBFF1B
:104610000546D7F86C46D7F86806FFF777FA4B4699
:104620002246294630460DF094FF0346FA69C7F842
:104630006426C7F8603607F5C073D7F860161846C9
:104640000DF0ABFC07F5D563A3F5A562D7F864368A
:10465000536000BF00BF07F5D563A3F5C962D7F863
:104660007436136007F5D563A3F5A56307F1600001
:1046700093E806000DF099FE07F5D563A3F5A56351
:104680005B68002B0CD007F5D563A3F5A5635B68C9
:104690001846FFF7FFF8034683F00103DBB2002B57
:1046A000624BC7F8843607F1AC03C7F8803607F1D0
:1046B00028030833C7F87C36D7F88436C7F878362D
:1046C000D7F88026D7F87C361360D7F88026D7F83D
:1046D0007836536000BF564B1B781846FDF754FAE6
:1046E0000346C7F8A03607F1AC03C7F89C36D7F8E5
:1046F0009C361A68D7F89C365B68C7F89826C7F8C6
:104700009436D7F89836FB61D7F8983603F1180637
:10471000D7F89406FEF757FF0546D7F89846D7F81E
:104720009406FFF7F3F953462246294630460DF02A
:1047300010FF0346FA69C7F89026C7F88C3607F5CC
:10474000BC73D7F88C1618460DF027FC07F5D56317
:10475000A3F5A662D7F89036536000BF00BFD7F824
:10476000A036C7F8883607F5D563A3F5A66393E8A6
:104770000600D7F88806FFF75AFB07F5D563A3F5BF
:10478000A6635B68002B0CD007F5D563A3F5A66381
:104790005B681846FFF77EF8034683F00103DBB23F
:1047A000002B244B1B78012B40F09480224BC7F840
:1047B000043607F1B403C7F8003607F128030833BD
:1047C000C7F8FC35D7F80436C7F8F835D7F800260F
:1047D000D7F8FC351360D7F80026D7F8F8355360C2
:1047E00000BF164BC7F8203607F1B403C7F81C36D4
:1047F000D7F81C361A68D7F81C365B68C7F8182635
:10480000C7F81436D7F81836FB61D7F8183603F115
:104810001806D7F8140613E0B0210024C0A9030835
:1048200010AA0308DCA903087425002420AA0308A1
:104830005131002464CA042430AA030844AA03089E
:10484000FEF7C1FE0546D7F81846D7F81406FFF75D
:104850005DF9FB792246294630460DF07AFE034683
:10486000FA69C7F81026C7F80C3607F5C873D7F8E9
:104870000C1618460DF091FB07F5D563A3F5A3625E
:10488000D7F81036536000BF00BFD7F82036C7F8FE
:10489000083607F5D563A3F5A36393E80600D7F8B8
:1048A0000806FFF7C4FA07F5D563A3F5A3635B68B1
:1048B000002B00F08D8007F5D563A3F5A3635B683B
:1048C0001846FEF7E7FF034683F00103DBB2002B37
:1048D0007ED07DE03F4BC7F8D83507F1BC03C7F861
:1048E000D43507F128030833C7F8D035D7F8D835C1
:1048F000C7F8CC35D7F8D425D7F8D0351360D7F81A
:10490000D425D7F8CC35536000BF334BC7F8F43506
:1049100007F1BC03C7F8F035D7F8F0351A68D7F8B7
:10492000F0355B68C7F8EC25C7F8E835D7F8EC3503
:10493000FB61D7F8EC3503F11806D7F8E805FEF768
:1049400042FE0546D7F8EC45D7F8E805FFF7DEF854
:104950005B462246294630460DF0FBFD0346FA69C8
:10496000C7F8E425C7F8E03507F5CC73D7F8E015AC
:1049700018460DF012FB07F5D563A3F5A262D7F830
:10498000E435536000BF00BFD7F8F435C7F8DC3515
:1049900007F5D563A3F5A26393E80600D7F8DC0515
:1049A000FFF745FA07F5D563A3F5A2635B68002B13
:1049B00014D007F5D563A3F5A2635B681846FEF72C
:1049C00069FF034683F00103DBB2002B06D005E04C
:1049D00000BF04E030AA03084CAA030800BF07F593
:1049E000D563A3F24C42D44B136007F1C40207F520
:1049F000D563A3F58A631A6007F5D563A3F2544221
:104A000007F128030833136007F5D563A3F58B621C
:104A100007F5D563A3F24C431B68136007F5D56314
:104A2000A3F58A631A6807F5D563A3F254431B689C
:104A3000136007F5D563A3F58A631A6807F5D56394
:104A4000A3F58B631B68536000BF07F5D563A3F222
:104A5000344207F1C403136007F5D563A3F234436E
:104A60001B68196807F5D563A3F234431B685A68BD
:104A700007F5D563A3F58763196007F5D563A3F23E
:104A80003C431A6007F5D563A3F587631B68FB6198
:104A900007F5D563A3F587631B6803F1180607F5CF
:104AA000D563A3F23C431868FEF78DFD054607F574
:104AB000D563A3F587631C6807F5D563A3F23C4370
:104AC0001868FFF723F897F8213022462946304628
:104AD0000DF03FFD024607F5D563A3F58863F9693C
:104AE000196007F5D563A3F244431A6007F5127203
:104AF00007F5D563A3F24443196810460DF04DFA4B
:104B000007F5D563A3F58C6207F5D563A3F5886334
:104B10001B68536000BF00BF07F5D563A3F589622A
:104B2000864B136007F5D563A3F589631B68187876
:104B300007F5D563A3F58C6393E806000DF091FCAF
:104B400007F5D563A3F58C635B68002B0CD007F5E4
:104B5000D563A3F58C635B681846FEF79BFE03469E
:104B600083F00103DBB2002B07F5D563A3F22442E7
:104B7000734B136007F1CC0207F5D563A3F585638A
:104B80001A6007F5D563A3F22C4207F12803083316
:104B9000136007F5D563A3F5866207F5D563A3F225
:104BA00024431B68136007F5D563A3F585631A6872
:104BB00007F5D563A3F22C431B68136007F5D56393
:104BC000A3F585631A6807F5D563A3F586631B68AB
:104BD000536000BF5B4830F007FB024607F5D56322
:104BE000A3F2D4531A6007F5D563A3F20C4207F180
:104BF000CC03136007F5D563A3F20C431B68196857
:104C000007F5D563A3F20C431B685A6807F5D56313
:104C1000A3F58263196007F5D563A3F214431A6004
:104C200007F5D563A3F582631B68FB6107F5D563C0
:104C3000A3F582631B6803F1180607F5D563A3F299
:104C400014431868FEF7BFFC054607F5D563A3F5C6
:104C500082631C6807F5D563A3F214431868FEF756
:104C600055FF97F820302246294630460DF071FC5A
:104C7000024607F5D563A3F58363F969196007F563
:104C8000D563A3F21C431A6007F5107207F5D563CC
:104C9000A3F21C43196810460DF07FF907F5D563A0
:104CA000A3F58D6207F5D563A3F583631B68536095
:104CB00000BF00BF07F5D563A3F5846207F1D403F5
:104CC000136007F5D563A3F584631B68186807F5BF
:104CD000D563A3F58D6393E806000DF077FB07F528
:104CE000D563A3F58D635B68002B0CD007F5D56306
:104CF000A3F58D635B681846FEF7CCFD034683F091
:104D00000103DBB2002B07F5D563A3F57F720E4BD1
:104D1000136007F1D80207F5D563A3F580631A6025
:104D200007F5D563A3F2044207F1280308331360A3
:104D300007F5D5630AE000BF54AA030866CA042435
:104D4000E8A9030870CA042470AA0308A3F58162C5
:104D500007F5D563A3F57F731B68136007F5D5636B
:104D6000A3F580631A6807F5D563A3F204431B68B3
:104D7000136007F5D563A3F580631A6807F5D5635B
:104D8000A3F581631B68536000BF07F5D563A3F5E6
:104D9000797207F1D803136007F5D563A3F579732A
:104DA0001B68196807F5D563A3F579731B685A6802
:104DB00007F5D563A3F57A73196007F5D563A3F5F5
:104DC0007B731A6007F5D563A3F57A731B68FB61E3
:104DD00007F5D563A3F57A731B6803F1180607F589
:104DE000D563A3F57B731868FEF7EDFB054607F561
:104DF000D563A3F57A731C6807F5D563A3F57B73B8
:104E00001868FEF783FEFB7E2246294630460DF0E9
:104E1000A0FB024607F5D563A3F57C73F969196019
:104E200007F5D563A3F57D731A6007F50E7207F5D4
:104E3000D563A3F57D73196810460DF0AEF807F53C
:104E4000D563A3F58E6207F5D563A3F57C731B6864
:104E5000536000BF00BF07F5D563A3F57E72D34B47
:104E6000136007F5D563A3F57E731B68188807F5F3
:104E7000D563A3F58E6393E806000DF0BEFA07F53F
:104E8000D563A3F58E635B68002B0CD007F5D56363
:104E9000A3F58E635B681846FEF7FCFC034683F0BF
:104EA0000103DBB2002B07F5D563A3F57572C04B88
:104EB000136007F1E00207F5D563A3F576731A6076
:104EC00007F5D563A3F5777207F12803083313605C
:104ED00007F5D563A3F5787207F5D563A3F5757368
:104EE0001B68136007F5D563A3F576731A6807F599
:104EF000D563A3F577731B68136007F5D563A3F536
:104F000076731A6807F5D563A3F578731B68536049
:104F100000BF07F5D563A3F56F7207F1E0031360D7
:104F200007F5D563A3F56F731B68196807F5D5639B
:104F3000A3F56F731B685A6807F5D563A3F5707303
:104F4000196007F5D563A3F571731A6007F5D5638A
:104F5000A3F570731B68FB6107F5D563A3F5707348
:104F60001B6803F1180607F5D563A3F5717318687C
:104F7000FEF729FB054607F5D563A3F570731C689A
:104F800007F5D563A3F571731868FEF7BFFDBB7E07
:104F90002246294630460DF0DCFA024607F5D56375
:104FA000A3F57273F969196007F5D563A3F57373F7
:104FB0001A6007F50C7207F5D563A3F573731968CA
:104FC00010460CF0EAFF07F5D563A3F58F6207F5ED
:104FD000D563A3F572731B68536000BF00BF07F56C
:104FE000D563A3F57472734B136007F5D563A3F50E
:104FF00074731B68187807F5D563A3F58F6393E87E
:1050000006000DF02EFA07F5D563A3F58F635B68F4
:10501000002B0CD007F5D563A3F58F635B681846AA
:10502000FEF738FC034683F00103DBB2002B07F5E3
:10503000D563A3F56B72604B136007F1E80207F5C7
:10504000D563A3F56C731A6007F5D563A3F56D728C
:1050500007F128030833136007F5D563A3F56E72D3
:1050600007F5D563A3F56B731B68136007F5D5636C
:10507000A3F56C731A6807F5D563A3F56D731B6808
:10508000136007F5D563A3F56C731A6807F5D5634C
:10509000A3F56E731B68536000BF07F5D563A3F5D6
:1050A0006572464B136007F5D563A3F5667207F189
:1050B000E803136007F5D563A3F566731B681968E9
:1050C00007F5D563A3F566731B685A6807F5D563C2
:1050D000A3F56773196007F5D563A3F568731A60C4
:1050E00007F5D563A3F567731B68FB6107F5D56307
:1050F000A3F567731B6803F1180607F5D563A3F5DD
:1051000068731868FEF75FFA054607F5D563A3F5DF
:1051100067731C6807F5D563A3F568731868FEF715
:10512000F5FC7B7E2246294630460DF012FA0246F7
:1051300007F5D563A3F56973F969196007F5D563B8
:10514000A3F56A731A6007F50A7207F5D563A3F52C
:105150006A73196810460CF020FF07F5D563A3F5B4
:10516000906207F5D563A3F569731B68536000BFB0
:1051700000BF07F5D563A3F5C46207F5D563A3F5B2
:1051800065731B68136007F5D563A3F5906307F19A
:10519000880093E806000DF008F907F5D563A3F53C
:1051A00090635B68002B18D00AE000BFE82700245A
:1051B00084AA030811BE042494AA030874250024B9
:1051C00007F5D563A3F590635B681846FEF762FBAD
:1051D000034683F00103DBB2002B07F5D563A3F58B
:1051E0006172D44B136007F1F00207F5D563A3F5A4
:1051F00062731A6007F5D563A3F5637207F128039C
:105200000833136007F5D563A3F5647207F5D5631A
:10521000A3F561731B68136007F5D563A3F562738B
:105220001A6807F5D563A3F563731B68136007F568
:10523000D563A3F562731A6807F5D563A3F56473A4
:105240001B68536000BF07F5D563A3F55B72BA4BCB
:10525000136007F5D563A3F55C7207F1F0031360E3
:1052600007F5D563A3F55C731B68196807F5D5636B
:10527000A3F55C731B685A6807F5D563A3F55D73E6
:10528000196007F5D563A3F55E731A6007F5D5635A
:10529000A3F55D731B68FB6107F5D563A3F55D732B
:1052A0001B6803F1180607F5D563A3F55E7318684C
:1052B000FEF789F9054607F5D563A3F55D731C680C
:1052C00007F5D563A3F55E731868FEF71FFC3B7EF8
:1052D0002246294630460DF03CF9024607F5D563D3
:1052E000A3F55F73F969196007F5D563A3F56073DA
:1052F0001A6007F5087207F5D563A3F5607319689E
:1053000010460CF04AFE07F5D563A3F5916207F548
:10531000D563A3F55F731B68536000BF00BF07F53B
:10532000D563A3F2246207F5D563A3F55B731B680D
:10533000136007F5D563A3F5916307F1840093E843
:1053400006000DF032F807F5D563A3F591635B68AD
:10535000002B0CD007F5D563A3F591635B68184665
:10536000FEF798FA034683F00103DBB2002B07F542
:10537000D563A3F55772714B136007F1F80207F577
:10538000D563A3F558731A6007F5D563A3F5597271
:1053900007F128030833136007F5D563A3F55A72A4
:1053A00007F5D563A3F557731B68136007F5D5633D
:1053B000A3F558731A6807F5D563A3F559731B68ED
:1053C000136007F5D563A3F558731A6807F5D5631D
:1053D000A3F55A731B68536000BF07F5D563A3F5A7
:1053E0005172574B136007F5D563A3F5527207F15D
:1053F000F803136007F5D563A3F552731B681968AA
:1054000007F5D563A3F552731B685A6807F5D56392
:10541000A3F55373196007F5D563A3F554731A60A8
:1054200007F5D563A3F553731B68FB6107F5D563D7
:10543000A3F553731B6803F1180607F5D563A3F5AD
:1054400054731868FEF7BFF8054607F5D563A3F552
:1054500053731C6807F5D563A3F554731868FEF7FA
:1054600055FBFB7D2246294630460DF072F8024678
:1054700007F5D563A3F55573F969196007F5D56389
:10548000A3F556731A6007F5067207F5D563A3F501
:105490005673196810460CF080FD07F5D563A3F527
:1054A000926207F5D563A3F555731B68536000BF7F
:1054B00000BF07F5D563A3F5C56207F5D563A3F56E
:1054C00051731B68136007F5D563A3F5926307F169
:1054D000800093E806000CF068FF07F5D563A3F59C
:1054E00092635B68002B0CD007F5D563A3F592633C
:1054F0005B681846FEF7CEF9034683F00103DBB282
:10550000002B07F5D563A3F54D720E4B136007F51D
:10551000807207F5D563A3F54E731A6007F5D5635E
:10552000A3F54F7207F128030833136007F5D5631D
:105530000AE000BF9CAA030834230024B0AA030891
:1055400074230024C8AA0308A3F5507207F5D56395
:10555000A3F54D731B68136007F5D563A3F54E7370
:105560001A6807F5D563A3F54F731B68136007F539
:10557000D563A3F54E731A6807F5D563A3F5507389
:105580001B68536000BF07F5D563A3F54772D34B83
:10559000136007F5D563A3F5487207F580731360B0
:1055A00007F5D563A3F548731B68196807F5D5633C
:1055B000A3F548731B685A6807F5D563A3F54973CB
:1055C000196007F5D563A3F54A731A6007F5D5632B
:1055D000A3F549731B68FB6107F5D563A3F5497310
:1055E0001B6803F1180607F5D563A3F54A7318681D
:1055F000FDF7E9FF054607F5D563A3F549731C6878
:1056000007F5D563A3F54A731868FEF77FFABB7DEB
:105610002246294630460CF09CFF024607F5D5632A
:10562000A3F54B73F969196007F5D563A3F54C73BE
:105630001A6007F5047207F5D563A3F54C73196872
:1056400010460CF0AAFC07F5D563A3F5936207F5A5
:10565000D563A3F54B731B68536000BF00BF07F50C
:10566000D563A3F22C6207F5D563A3F547731B68D6
:10567000136007F5D563A3F5936307F17C0093E806
:1056800006000CF092FE07F5D563A3F593635B6803
:10569000002B0CD007F5D563A3F593635B68184620
:1056A000FEF7F8F8034683F00103DBB2002B07F5A1
:1056B000D563A3F543728A4B136007F5847207F52F
:1056C000D563A3F544731A6007F5D563A3F5457256
:1056D00007F128030833136007F5D563A3F5467275
:1056E00007F5D563A3F543731B68136007F5D5630E
:1056F000A3F544731A6807F5D563A3F545731B68D2
:10570000136007F5D563A3F544731A6807F5D563ED
:10571000A3F546731B68536000BF07F5D563A3F577
:105720003D7207F58473136007F5D563A3F53D73E8
:105730001B68196807F5D563A3F53D731B685A68A4
:1057400007F5D563A3F53E73196007F5D563A3F597
:105750003F731A6007F5D563A3F53E731B68FB61C1
:1057600007F5D563A3F53E731B6803F1180607F52B
:10577000D563A3F53F731868FDF725FF054607F5C8
:10578000D563A3F53E731C6807F5D563A3F53F7396
:105790001868FEF7BBF97B7D2246294630460CF09F
:1057A000D8FE024607F5D563A3F54073F969196081
:1057B00007F5D563A3F541731A6007F5027207F583
:1057C000D563A3F54173196810460CF0E6FB07F5A5
:1057D000D563A3F5946207F5D563A3F540731B6801
:1057E000536000BF00BF07F5D563A3F542723D4B80
:1057F000136007F5D563A3F542731B68187807F5A6
:10580000D563A3F5946393E806000CF02AFE07F530
:10581000D563A3F594635B68002B0CD007F5D563C3
:10582000A3F594635B681846FEF734F8034683F0EB
:105830000103DBB2002B07F5D563A3F539722A4BC0
:10584000136007F5887207F5D563A3F53A731A60FC
:1058500007F5D563A3F53B7207F1280308331360FE
:1058600007F5D563A3F53C7207F5D563A3F5397346
:105870001B68136007F5D563A3F53A731A6807F53B
:10588000D563A3F53B731B68136007F5D563A3F5D8
:105890003A731A6807F5D563A3F53C731B68536028
:1058A00000BF07F5D563A3F53372104B136007F5FE
:1058B000D563A3F5347207F58873136007F5D563D4
:1058C000A3F534731B68196807F5D563A3F5347322
:1058D0001B685A6807F5D5630AE000BF342400242A
:1058E000D4AA030810BE0424E8AA0308442700240D
:1058F000A3F53573196007F5D563A3F536731A6000
:1059000007F5D563A3F535731B68FB6107F5D56310
:10591000A3F535731B6803F1180607F5D563A3F5E6
:1059200036731868FDF74FFE054607F5D563A3F5F6
:1059300035731C6807F5D563A3F536731868FEF751
:10594000E5F83B7D2246294630460CF002FE024631
:1059500007F5D563A3F53773F969196007F5D563C2
:10596000A3F538731A6007F5007207F5D563A3F540
:105970003873196810460CF010FB07F5D563A3F5D2
:10598000956207F5D563A3F537731B68536000BFB5
:1059900000BF07F5D563A3F5C66207F5D563A3F588
:1059A00033731B68136007F5D563A3F5956307F19F
:1059B000780093E806000CF0F8FC07F5D563A3F532
:1059C00095635B68002B0CD007F5D563A3F5956351
:1059D0005B681846FDF75EFF034683F00103DBB208
:1059E000002B07F5D563A3F52F73D44A1A6007F58A
:1059F0008C7207F5D563A3F530731A6007F5D5638C
:105A0000A3F5317207F128030833136007F5D56356
:105A1000A3F5327207F5D563A3F52F731B681360E6
:105A200007F5D563A3F530731A6807F5D563A3F5B9
:105A300031731B68136007F5D563A3F530731A68DB
:105A400007F5D563A3F532731B68536000BF07F5F4
:105A5000D563A3F52973BA4A1A6007F5D563A3F590
:105A60002A7307F58C721A6007F5D563A3F52A73BC
:105A70001B68196807F5D563A3F52A731B685A6874
:105A800007F5D563A3F52B73196007F5D563A3F567
:105A90002C731A6007F5D563A3F52B731B68FB61A4
:105AA00007F5D563A3F52B731B6803F1180607F5FB
:105AB000D563A3F52C731868FDF785FD054607F53A
:105AC000D563A3F52B731C6807F5D563A3F52C7379
:105AD0001868FEF71BF8FB7C2246294630460CF07E
