:020000040800F2
:100000000000102449240008A91F0008B11F00089F
:10001000B91F0008C11F0008C91F00080000000028
:1000200000000000000000000000000011E60008D1
:10003000D11F00080000000061E80008C9E80008BE
:100040009D2400089D2400089D2400089D2400088C
:100050009D2400089D2400089D2400089D2400087C
:100060009D2400089D2400089D2400089D2400086C
:100070009D2400089D2400089D2400089D2400085C
:100080009D2400089D2400089D2400089D2400084C
:100090009D2400089D2400089D2400089D2400083C
:1000A0009D2400089D2400089D2400089D2400082C
:1000B0009D2400089D240008E11F0008F51F00088A
:1000C000092000089D2400089D2400081D20000828
:1000D0009D24000831200008452000085920000810
:1000E0009D2400089D2400089D2400089D240008EC
:1000F0009D2400089D2400089D2400089D240008DC
:100100009D2400089D2400089D2400089D240008CB
:100110006D200008812000089D2400089D2400080F
:100120009D2400089D2400089D2400089D240008AB
:100130009D24000800000000000000009D2400082D
:100140009D2400089D2400089D2400089D2400088B
:100150009D2400089D2400089D2400089520000887
:10016000A9200008BD2000089D2400089D24000847
:100170009D2400089D2400089D2400080000000024
:100180009D2400089D2400089D2400089D2400084B
:100190009D2400089D2400089D2400089D2400083B
:1001A0009D2400089D2400089D2400089D2400082B
:1001B0009D2400089D2400089D2400089D2400081B
:1001C0009D2400089D24000800000000000000009D
:1001D00000000000000000009D2400080000000056
:1001E000000000000000000000000000000000000F
:1001F00000000000000000009D2400089D2400086D
:100200009D2400089D240008000000009D24000893
:100210009D2400089D2400089D2400089D240008BA
:100220009D2400089D2400089D2400080000000073
:100230009D2400089D240008000000009D24000863
:100240009D2400089D2400089D2400089D2400088A
:100250009D2400089D2400089D2400089D2400087A
:100260009D2400089D2400089D2400089D2400086A
:100270009D2400089D2400089D2400080000000023
:100280009D2400089D240008000000009D24000813
:10029000000000009D2400089D24000800000000CC
:0C02A000000000009D2400089D240008C0
:1002B00010B5054C237833B9044B13B10448AFF3A0
:1002C00000800123237010BDDC0100240000000029
:1002D000D02B010808B5034B1BB103490348AFF30A
:1002E000008008BD00000000E0010024D02B0108C0
:1002F00001F0FF01102A2BDB10F0070F08D010F8D7
:10030000013B013A8B422DD010F0070F42B3F6D1DA
:10031000F0B441EA012141EA014122F007047FF0F3
:1003200000070023F0E80256083C85EA010586EA4A
:10033000010685FA47F5A3FA87F586FA47F6A5FA86
:1003400087F68EB9EED1F0BC01F0FF0102F0070292
:1003500032B110F8013B013A83EA010313B1F8D13D
:100360000020704701387047002D06BF354603381E
:10037000073815F0010F07D1013015F4807F02BF57
:10038000013015F4C03F0130F0BC0138704700BFA8
:10039000034613F8012B002AFBD1181A01387047C5
:1003A00053B94AB9002908BF00281CBF4FF0FF31DC
:1003B0004FF0FF3000F088B9ADF1080C6DE904CEC4
:1003C00000F006F8DDF804E0DDE9022304B0704730
:1003D0002DE9F047089D8E4604468846002B4AD1F9
:1003E0008A42174662D9B2FA82F64EB1C6F12003AC
:1003F00001FA06F820FA03F3B74043EA0808B440CC
:100400004FEA174E1FFA87FCB8FBFEF1230C0EFBD8
:10041000118843EA084301FB0CF29A4209D9FB1800
:1004200001F1FF3080F0EA809A4240F2E780023921
:100430003B449A1AA3B2B2FBFEF00EFB102243EA31
:10044000024300FB0CFC9C4509D9FB1800F1FF326C
:1004500080F0D6809C4540F2D3803B44023840EA8D
:100460000140A3EB0C0300211DB1F3400022C5E9BC
:100470000032BDE8F0878B4205D90DB1C5E9000116
:1004800000210846F5E7B3FA83F1002946D1734508
:1004900002D3824200F20581841A6EEB030201202E
:1004A0009046002DE5D0C5E90048E2E7002A00F0BB
:1004B0009080B2FA82F6002E40F0A4808A1A030CD3
:1004C0004FEA174E80B2BCB20121B2FBFEFC0EFB1C
:1004D0001C2243EA024304FB0CF29A4207D9FB18A0
:1004E0000CF1FF3802D29A4200F2E080C4469B1A17
:1004F000B3FBFEF20EFB123340EA034302FB04F4AB
:100500009C4207D9FB1802F1FF3002D29C4200F254
:10051000CA8002461B1B42EA0C40A5E7C1F1200637
:100520008B4022FA06F71F430EFA01F420FA06F375
:100530002EFA06FE4FEA1749234300FA01F81FFA84
:1005400087FCBEFBF9F01C0C09FB10EE44EA0E44DC
:1005500000FB0CFEA64502FA01F209D93C1900F194
:10056000FF3A80F09C80A64540F2998002383C44D6
:10057000A4EB0E041FFA83FEB4FBF9F309FB13444A
:100580004EEA044403FB0CFCA44508D93C1903F1D2
:10059000FF3E80F08280A4457FD9023B3C4443EA81
:1005A0000040A4EB0C04A0FB02EC64457346E1465A
:1005B00062D35FD05DB1B8EB030264EB090404FAC7
:1005C00006F622FA01F31E43CC40C5E9006400217F
:1005D0004FE7B1FBF2FC010C41EA0E4180B240EA68
:1005E00001423B4638463C46B846BE462026B1FB53
:1005F000F7F1A2EB080241EA0C4166E7014618E771
:1006000010462CE7C6F120022EFA02F3B740B140A3
:1006100020FA02F24FEA174E0A43B3FBFEF8BCB2CF
:100620000EFB1833110C41EA034108FB04F9B040FA
:1006300089454FEA104380B23ED9791808F1FF3C52
:1006400001D289451FD8A1EB0901B1FBFEF909FBD5
:1006500004F80EFB191192B242EA0142424529D236
:10066000BA1809F1FF31C4D24245C2D2A9F1020140
:100670003A44BEE7F0459DD2BEEB02036CEB070C9B
:100680000138E14696E7A7EB09094944A8F1020CB5
:10069000B1FBFEF909FB04F8DBE773467FE7504640
:1006A00066E70846FDE63B44023A33E7ACF1020C4C
:1006B0003B441CE749469CE7A1EB0901C446B1FB5A
:1006C000FEF909FB04F8C4E7704700BF80B582B0AB
:1006D00000AF7860094A7B681A604FF4C862002155
:1006E000074810F0D1FA4FF4C8620021054810F015
:1006F000CBFA7B6818460837BD4680BD442F0108F9
:10070000F80100243808002480B483B000AF78607A
:10071000044A7B681A607B6818460C37BD465DF852
:10072000047B7047442F010880B582B000AF786029
:100730007868FFF7E9FF4FF4C86178680FF086FC2E
:100740007B6818460837BD4680BD000080B500AF05
:100750000348FFF7BBFF0348FFF7B8FF00BF80BDAA
:10076000F80100243808002480B500AF0348FFF7E3
:10077000CBFF0348FFF7C8FF00BF80BD3808002447
:10078000F801002480B500AFFFF7E0FF80BD80B521
:1007900000AFFFF7E9FF80BD80B485B000AFF8601F
:1007A000B9607A60FB68074A1A60BB68064A1A603B
:1007B0007B6880221A6000BF1437BD465DF8047B59
:1007C000704700BF780E0024CC0E002480B584B0A2
:1007D00002AF00237B8000237B707A1CBB1C194670
:1007E0001E480FF083FA78607B68002B25D1B7F99B
:1007F00002301B4A82FB03129210DB17D31A1BB282
:100800001846B7F90220164B83FB02139910D31731
:10081000C91A0B469B000B445B00D31A1BB2002B7A
:10082000B8BF5B429BB21A467B78009313460246E0
:100830000C490D480FF09AFB0BE07B68012B04D1AB
:100840000A4909480FF092FB03E0094906480FF0F6
:100850008DFB00BF0837BD4680BD00BFC417002414
:1008600067666666E82B0108BCAC0424142C0108FA
:10087000302C0108B0B58CB000AF00F009FE01F0DB
:100880000FFE00F05BF800F00BFD00F055F900F0F2
:10089000A1F900F03FFA00F0C3FA00F021FB00F0EC
:1008A0007FFB00F0DDFB00F03BFC00F099FC00F06A
:1008B00003FA00F089FA00F0CFF800F0D9F91949ED
:1008C00019480FF053FB0023BB620023FB6207F1C2
:1008D000280318460BF08FFE0346144A13600023CA
:1008E0003B6200237B6207F12003012118460BF0D5
:1008F0001FFF03460E4A13600E4B3C1D1D460FCDD5
:100900000FC495E8070084E807003B1D0021184646
:100910000BF011FE0346084A13600BF005FE00BF02
:10092000FDE700BF4C2C0108BCAC0424B017002428
:10093000B41700247C2C0108AC17002480B59CB0AF
:1009400000AF07F124034C220021184610F09CF957
:100950003B1D20220021184610F096F93C4B4FF029
:10096000FF32C3F8B020022005F02AFA00233B60D2
:10097000384B9B69374A23F440439361354B9B695D
:1009800003F440433B603B6800BF324B9B6903F478
:100990000053B3F5005F14BF01230023DBB2002B2B
:1009A000F3D105F0FDF92A4B1B6F294A23F01803F8
:1009B000136706237B620123FB6201233B63402311
:1009C0007B630223BB640023FB6404233B65082391
:1009D0007B650223BB650223FB6502233B660C2378
:1009E0007B660023BB660023FB6607F124031846E1
:1009F00005F020FA0346002B14BF01230023DBB2CD
:100A0000002B01D000F082FD3F237B600323BB60FD
:100A10000023FB6000233B6100237B614023BB611B
:100A20000023FB6100233B623B1D0221184605F0B9
:100A300033FE0346002B14BF01230023DBB2002B3F
:100A400001D000F063FD00BF7037BD4680BD00BF20
:100A5000004402580048025880B588B000AF3B1DE2
:100A600000221A605A609A60DA601A615A619A61CB
:100A70002E4B2F4A1A602D4B00225A602B4B082216
:100A80009A602A4B0022DA60284B04221A61274B15
:100A900000221A75254B00225A75244B01229A61B7
:100AA000224B00221A77214B00225A621F4B002250
:100AB0009A621E4B0022DA621C4B00221A631B4B07
:100AC00000225A63194B002283F83820174801F09E
:100AD00001FF0346002B14BF01230023DBB2002BD0
:100AE00001D000F013FD134B7B600623BB6007238E
:100AF000FB6040F2FF733B6104237B610023BB6119
:100B000000237B773B1D1946084802F03DF8034659
:100B1000002B14BF01230023DBB2002B01D000F017
:100B2000F5FC00BF2037BD4680BD00BFCC100024BF
:100B3000002102400020903680B500AF224B234AAE
:100B40001A60214B224A5A601F4B00229A601E4BAA
:100B50000122DA601C4B00221A611B4B00225A61F1
:100B6000194B00229A61184B0022DA61164B0022C1
:100B70001A62154803F0E8FB0346002B14BF01235B
:100B80000023DBB2002B01D000F0C0FC00210E4896
:100B900005F00EF80346002B14BF01230023DBB23F
:100BA000002B01D000F0B2FC0021074805F04BF803
:100BB0000346002B14BF01230023DBB2002B01D01E
:100BC00000F0A4FC00BF80BD3011002400540040A0
:100BD000BB7C700080B500AF224B234A1A60214BCA
:100BE000224A5A601F4B00229A601E4B0122DA6093
:100BF0001C4B00221A611B4B00225A61194B002228
:100C00009A61184B0022DA61164B00221A621548CD
:100C100003F09AFB0346002B14BF01230023DBB231
:100C2000002B01D000F072FC00210E4804F0C0FF40
:100C30000346002B14BF01230023DBB2002B01D09D
:100C400000F064FC0021074804F0FDFF0346002B80
:100C500014BF01230023DBB2002B01D000F056FCAF
:100C600000BF80BD84110024005C0040BB7C70008C
:100C700080B500AF0E4B0F4A1A600D4B06225A602A
:100C80000B4B40F6FF72DA60094B40F6FF729A6038
:100C9000074805F024F80346002B14BF0123002366
:100CA000DBB2002B01D000F031FC00BF80BD00BFE3
:100CB000D81100240048005880B500AF134B144AE7
:100CC0001A60124B00225A60104B7F229A600F4B21
:100CD000FF22DA600D4B00221A610C4B00229A6150
:100CE0000A4B4FF08042DA61084B00225A610748F4
:100CF00008F0AAFC0346002B14BF01230023DBB23B
:100D0000002B01D000F002FC00BF80BDE8110024E0
:100D10000040005880B500AF294B2A4A1A60284B82
:100D20004FF480025A60264B00229A60244B07221F
:100D3000DA60234B00221A61214B00225A61204BBA
:100D40004FF080629A611E4B0022DA611C4B002238
:100D50001A621B4B00225A62194B00229A62184BEE
:100D60000022DA62164B4FF080425A63144B002285
:100D70009A63134B0022DA63114B00221A64104B62
:100D800000225A640E4B00229A640D4B0022DA6452
:100D90000B4B00221A650A4B00225A65084B0022B1
:100DA0009A65074808F06EFD0346002B14BF012327
:100DB0000023DBB2002B01D000F0A8FB00BF80BDF8
:100DC000101200240030014080B500AF124B134ACE
:100DD0001A60114B47225A600F4B00229A600E4B4B
:100DE0004FF6FF72DA600C4B00221A610A4B0022A8
:100DF0005A61094B00229A61074809F03CF9034601
:100E0000002B14BF01230023DBB2002B01D000F024
:100E10007DFB00BF80BD00BF60170024004801407B
:100E200080B500AF2C4B2D4A1A602B4B4FF4E132AA
:100E30005A60294B00229A60274B0022DA60264B29
:100E400000221A61244B0C225A61234B00229A6122
:100E5000214B0022DA61204B00221A621E4B002235
:100E60005A621D4B00229A621B4809F0C1FB0346DF
:100E7000002B14BF01230023DBB2002B01D000F0B4
:100E800045FB002114480BF05BFA0346002B14BF0E
:100E900001230023DBB2002B01D000F037FB00213F
:100EA0000D480BF08BFA0346002B14BF01230023DF
:100EB000DBB2002B01D000F029FB07480BF007FA4A
:100EC0000346002B14BF01230023DBB2002B01D00B
:100ED00000F01CFB00BF80BD98120024004C0040B5
:100EE00080B500AF2C4B2D4A1A602B4B4FF4E132EA
:100EF0005A60294B00229A60274B0022DA60264B69
:100F000000221A61244B0C225A61234B00229A6161
:100F1000214B0022DA61204B00221A621E4B002274
:100F20005A621D4B00229A621B4809F061FB03467E
:100F3000002B14BF01230023DBB2002B01D000F0F3
:100F4000E5FA002114480BF0FBF90346002B14BF0F
:100F500001230023DBB2002B01D000F0D7FA0021DF
:100F60000D480BF02BFA0346002B14BF012300237E
:100F7000DBB2002B01D000F0C9FA07480BF0A7F94B
:100F80000346002B14BF01230023DBB2002B01D04A
:100F900000F0BCFA00BF80BD641300240050004084
:100FA00080B500AF2C4B2D4A1A602B4B4FF4E13229
:100FB0005A60294B00229A60274B0022DA60264BA8
:100FC00000221A61244B0C225A61234B00229A61A1
:100FD000214B0022DA61204B00221A621E4B0022B4
:100FE0005A621D4B00229A621B4809F001FB03461E
:100FF000002B14BF01230023DBB2002B01D000F033
:1010000085FA002114480BF09BF90346002B14BF0E
:1010100001230023DBB2002B01D000F077FA00217E
:101020000D480BF0CBF90346002B14BF012300231E
:10103000DBB2002B01D000F069FA07480BF047F94A
:101040000346002B14BF01230023DBB2002B01D089
:1010500000F05CFA00BF80BD301400240010014095
:1010600080B500AF2C4B2D4A1A602B4B4FF4E13268
:101070005A60294B00229A60274B0022DA60264BE7
:1010800000221A61244B0C225A61234B00229A61E0
:10109000214B0022DA61204B00221A621E4B0022F3
:1010A0005A621D4B00229A621B4809F0A1FA0346BE
:1010B000002B14BF01230023DBB2002B01D000F072
:1010C00025FA002114480BF03BF90346002B14BF0E
:1010D00001230023DBB2002B01D000F017FA00211E
:1010E0000D480BF06BF90346002B14BF01230023BE
:1010F000DBB2002B01D000F009FA07480BF0E7F84B
:101100000346002B14BF01230023DBB2002B01D0C8
:1011100000F0FCF900BF80BDFC1400240044004036
:1011200080B500AF2C4B2D4A1A602B4B4FF4E132A7
:101130005A60294B00229A60274B0022DA60264B26
:1011400000221A61244B0C225A61234B00229A611F
:10115000214B0022DA61204B00221A621E4B002232
:101160005A621D4B00229A621B4809F041FA03465D
:10117000002B14BF01230023DBB2002B01D000F0B1
:10118000C5F9002114480BF0DBF80346002B14BF0F
:1011900001230023DBB2002B01D000F0B7F90021BE
:1011A0000D480BF00BF90346002B14BF012300235D
:1011B000DBB2002B01D000F0A9F907480BF087F84B
:1011C0000346002B14BF01230023DBB2002B01D008
:1011D00000F09CF900BF80BDC81500240048004005
:1011E00080B500AF2C4B2D4A1A602B4B4FF4165292
:1011F0005A60294B00229A60274B0022DA60264B66
:1012000000221A61244B0C225A61234B00229A615E
:10121000214B0022DA61204B00221A621E4B002271
:101220005A621D4B00229A621B4809F0E1F90346FD
:10123000002B14BF01230023DBB2002B01D000F0F0
:1012400065F9002114480BF07BF80346002B14BF0E
:1012500001230023DBB2002B01D000F057F900215D
:101260000D480BF0ABF80346002B14BF01230023FD
:10127000DBB2002B01D000F049F907480BF027F84A
:101280000346002B14BF01230023DBB2002B01D047
:1012900000F03CF900BF80BD94160024001401400A
:1012A00080B58AB000AF07F1140300221A605A60BB
:1012B0009A60DA601A61584BD3F84031564A43F0CD
:1012C0000403C2F84031544BD3F8403103F0040317
:1012D0003B613B69504BD3F840314F4A43F0010327
:1012E000C2F840314C4BD3F8403103F00103FB60AE
:1012F000FB68494BD3F84031474A43F00203C2F838
:101300004031454BD3F8403103F00203BB60BB686A
:10131000414BD3F84031404A43F00803C2F8403112
:101320003D4BD3F8403103F008037B607B6800221B
:1013300048F21001394802F0EDFF002240F2064168
:10134000374802F0E7FF01224CF21821344802F03E
:10135000E1FF01224FF48051324802F0DBFF01220D
:101360000421314802F0D6FF4FF400537B61002383
:10137000BB610023FB6107F114031946294802F001
:1013800019FE48F210037B610123BB610023FB615E
:1013900000233B6207F114031946204802F00AFEBD
:1013A0004CF21E637B610123BB610023FB610023C0
:1013B0003B6207F114031946194802F0FBFD4FF494
:1013C00080537B610123BB610023FB6100233B62EF
:1013D00007F114031946134802F0ECFD04237B6166
:1013E0000123BB610023FB6100233B6207F114036F
:1013F00019460D4802F0DEFD60237B610023BB61CE
:101400000023FB6107F114031946054802F0D2FDE1
:1014100000BF2837BD4680BD004402580000025876
:101420000004025800080258000C025880B582B02F
:1014300000AF78604FF47A700BF0C9F80E4B0122C0
:101440001A700E4B0022DA720C4B00229A724FF483
:10145000C86200210A480FF017FC0A490A480EF03A
:1014600085FD0A4804F08CFCFFF7B0F94FF47A7060
:101470000BF0ADF800BFF4E7B8170024149804246B
:10148000380800245C2D0108BCAC0424D8110024C9
:1014900080B584B000AF3B4600221A605A609A6063
:1014A000DA6001F09DFF01233B7000237B70002375
:1014B0007B601F233B7287237B720023BB72002358
:1014C000FB7201233B7301237B730023BB73002357
:1014D000FB733B46184601F0BBFF042001F098FF68
:1014E00000BF1037BD4680BD80B582B000AF7860C8
:1014F0007B681B68044A934201D101F00DF800BFDC
:101500000837BD4680BD00BF0008004080B400AF72
:1015100072B600BF00BFFDE780B500AF05490648C1
:101520000DF038FF8822044904480EF08FFB00BFFD
:1015300080BD00BF30110024BC170024C417002454
:1015400080B500AF02480DF039FF00BF80BD00BF7D
:10155000BC17002480B500AFFFF7DEFF80BD80B56B
:1015600000AFFFF7EDFF80BD80B582B000AF0C4B40
:10157000D3F854310A4A43F00203C2F85431084BFD
:10158000D3F8543103F002037B607B6800220F2103
:101590006FF0010001F0FCFE00BF0837BD4680BDC2
:1015A0000044025880B5BAB000AF786007F1D403A8
:1015B00000221A605A609A60DA601A6107F110031B
:1015C000C022002118460FF05FFB7B681B682B4A86
:1015D00093424FD14FF400224FF00003C7E9042398
:1015E0000423BB610823FB6108233B6202237B6267
:1015F0000223BB62C023FB6200233B6300237B63A7
:101600000023C7F8BC3007F11003184605F012FCA0
:101610000346002B01D0FFF779FF194BD3F838317F
:10162000174A43F02003C2F83831154BD3F838314C
:1016300003F02003FB60FB68114BD3F84031104AE4
:1016400043F00403C2F840310D4BD3F8403103F0AE
:101650000403BB60BB680823C7F8D4300323C7F872
:10166000D8300023C7F8DC3007F1D4031946054809
:1016700002F0A0FC00BFE837BD4680BD002102405B
:10168000004402580008025880B5BEB000AF786030
:1016900007F1E40300221A605A609A60DA601A6166
:1016A00007F12003C022002118460FF0EDFA7B68F5
:1016B0001B68704A934257D14FF008024FF0000365
:1016C000C7E908230023C7F8AC3007F12003184608
:1016D00005F0B0FB0346002B01D0FFF717FF664B68
:1016E000D3F84031644A43F00203C2F84031624B00
:1016F000D3F8403103F00203FB61FB694FF4C07380
:10170000C7F8E4301223C7F8E8300023C7F8EC30FC
:101710000023C7F8F0300423C7F8F43007F1E403DE
:101720001946564802F046FC534BD3F84831524A0A
:1017300043F40013C2F848314F4BD3F8483103F457
:101740000013BB61BB69002205211F2001F020FEB0
:101750001F2001F037FE00220521202001F018FE95
:10176000202001F02FFE80E07B681B68444A9342F2
:101770007BD14FF008024FF00003C7E90823002394
:10178000C7F8AC3007F12003184605F053FB0346B9
:10179000002B01D0FFF7BAFE374BD3F84031364A61
:1017A00043F00403C2F84031334BD3F8403103F027
:1017B00004037B617B69304BD3F840312E4A43F000
:1017C0000103C2F840312C4BD3F8403103F0010340
:1017D0003B613B694FF40073C7F8E4301223C7F84C
:1017E000E8300023C7F8EC300023C7F8F0300423BA
:1017F000C7F8F43007F1E4031946224802F0DAFB97
:101800004FF48073C7F8E4301223C7F8E8300023A0
:10181000C7F8EC300023C7F8F0300423C7F8F430E1
:1018200007F1E4031946184802F0C4FB124BD3F841
:101830004831114A43F40003C2F848310E4BD3F843
:10184000483103F40003FB60FB68002205214820B7
:1018500001F09EFD482001F0B5FD00220521492040
:1018600001F096FD492001F0ADFD00BFF837BD46FF
:1018700080BD00BF005400400044025800040258DC
:10188000005C0040000802580000025880B5B2B069
:1018900000AF786007F10803C022002118460FF05E
:1018A000F3F97B681B68104A934219D14FF4800208
:1018B0004FF00003C7E902234FF48073C7F8BC3030
:1018C00007F10803184605F0B5FA0346002B01D0CE
:1018D000FFF71CFE054B1B6F044A43F400431367DC
:1018E00000BFC837BD4680BD0040005800440258C4
:1018F00080B5BAB000AF786007F1D40300221A6057
:101900005A609A60DA601A6107F11003C022002160
:1019100018460FF0B9F97B681B682A4A93424CD1EC
:101920004FF480524FF00003C7E9042300237B6784
:1019300007F11003184605F07DFA0346002B01D08D
:10194000FFF7E4FD204BD3F850311F4A43F4805396
:10195000C2F850311C4BD3F8503103F48053FB6074
:10196000FB68194BD3F84031174A43F00103C2F822
:101970004031154BD3F8403103F00103BB60BB6825
:10198000E023C7F8D4300223C7F8D8300023C7F8C3
:10199000DC300023C7F8E0300523C7F8E43007F156
:1019A000D4031946094802F005FB00220521232033
:1019B00001F0EEFC232001F005FD00BFE837BD4635
:1019C00080BD00BF003001400044025800000258B2
:1019D00080B485B000AF78607B681B680B4A934287
:1019E0000ED10B4BD3F85031094A43F48023C2F88F
:1019F0005031074BD3F8503103F48023FB60FB6870
:101A000000BF1437BD465DF8047B704700480140B5
:101A10000044025880B5C4B000AF07F58873A3F541
:101A20008673186007F1FC0300221A605A609A60FE
:101A3000DA601A6107F13803C022002118460FF05E
:101A400023F907F58873A3F586731B681B68AE4AF4
:101A500093424FD14FF002024FF00003C7E90E232B
:101A60000023C7F8B83007F13803184605F0E2F94B
:101A70000346002B01D0FFF749FDA44BD3F84831B2
:101A8000A24A43F40023C2F84831A04BD3F84831AE
:101A900003F400237B637B6B9C4BD3F840319B4A60
:101AA00043F00103C2F84031984BD3F8403103F0C2
:101AB00001033B633B6B4FF4C053C7F8FC30022378
:101AC000C7F800310023C7F804310023C7F80831F4
:101AD0000623C7F80C3107F1FC0319468C4802F0C5
:101AE00069FA00220521342001F052FC342001F073
:101AF00069FCDFE107F58873A3F586731B681B6833
:101B0000844A93424FD14FF002024FF00003C7E9DD
:101B10000E230023C7F8B83007F13803184605F044
:101B200089F90346002B01D0FFF7F0FC774BD3F87F
:101B30004831764A43F48013C2F84831734BD3F8E6
:101B4000483103F48013FB62FB6A704BD3F84031D9
:101B50006E4A43F00203C2F840316C4BD3F8403177
:101B600003F00203BB62BB6A4FF44053C7F8FC307A
:101B70000223C7F800310023C7F804310023C7F857
:101B800008310E23C7F80C3107F1FC0319466248EF
:101B900002F010FA00220521352001F0F9FB352072
:101BA00001F010FC86E107F58873A3F586731B68C6
:101BB0001B685A4A93424FD14FF001024FF0000385
:101BC000C7E90E230023C7F8BC3007F138031846D5
:101BD00005F030F90346002B01D0FFF797FC4B4B83
:101BE000D3F85031494A43F01003C2F85031474B03
:101BF000D3F8503103F010037B627B6A434BD3F878
:101C00004031424A43F00103C2F840313F4BD3F820
:101C1000403103F001033B623B6A4FF4C063C7F8F5
:101C2000FC300223C7F800310023C7F80431002339
:101C3000C7F808310723C7F80C3107F1FC03194630
:101C4000334802F0B7F900220521252001F0A0FB5E
:101C5000252001F0B7FB2DE107F58873A3F5867306
:101C60001B681B682E4A93425CD14FF002024FF072
:101C70000003C7E90E230023C7F8B83007F1380383
:101C8000184605F0D7F80346002B01D0FFF73EFCBD
:101C90001E4BD3F848311D4A43F40033C2F8483193
:101CA0001A4BD3F8483103F40033FB61FB69174B3F
:101CB000D3F84031154A43F00103C2F84031134BC9
:101CC000D3F8403103F00103BB61BB690C23C7F8B3
:101CD000FC300223C7F800310023C7F80431002389
:101CE000C7F808310723C7F80C3107F1FC03194680
:101CF000074802F05FF900220521262001F048FB89
:101D0000262001F05FFBD5E0004C00400044025863
:101D1000000002580050004000040258001001402A
:101D20000044004007F58873A3F586731B681B68A1
:101D3000634A934257D14FF002024FF00003C7E9C4
:101D40000E230023C7F8B83007F13803184605F012
:101D500071F80346002B01D0FFF7D8FB594BD3F89D
:101D60004831584A43F48023C2F84831554BD3F8E0
:101D7000483103F480237B617B69524BD3F84031B7
:101D8000504A43F00403C2F840314E4BD3F840317F
:101D900003F0040207F58873A3F580731A6007F552
:101DA0008873A3F580731B684FF44063C7F8FC3059
:101DB0000223C7F800310023C7F804310023C7F815
:101DC00008310723C7F80C3107F1FC0319463E48D8
:101DD00002F0F0F800220521272001F0D9FA27208F
:101DE00001F0F0FA66E007F58873A3F586731B68C7
:101DF0001B68364A93425DD14FF001024FF0000359
:101E0000C7E90E230023C7F8BC3007F13803184692
:101E100005F010F80346002B01D0FFF777FB294BA4
:101E2000D3F85031274A43F02003C2F85031254BF4
:101E3000D3F8503103F0200207F58873A3F58273BD
:101E40001A6007F58873A3F582731B681D4BD3F8DE
:101E500040311C4A43F00403C2F84031194BD3F817
:101E6000403103F0040207F58873A3F584731A6008
:101E700007F58873A3F584731B68C023C7F8FC308B
:101E80000223C7F800310023C7F804310023C7F844
:101E900008310723C7F80C3107F1FC0319460A483B
:101EA00002F088F800220521472001F071FA47204E
:101EB00001F088FA00BF07F58877BD4680BD00BFF6
:101EC0000048004000440258000802580014014035
:101ED00080B590B000AF78607B680F2B27D80022C8
:101EE00079681E2001F054FA1E2001F06BFA294A8D
:101EF0007B681360284BD3F84831274A43F004032A
:101F0000C2F84831244BD3F8483103F00403FB6096
:101F1000FB6807F1100207F114031146184604F09C
:101F200047FFBB6ABB63BB6B002B06D101E00123FB
:101F30002BE004F011FFF86304E004F00DFF03460A
:101F40005B00FB63FB6B154AA2FB03239B0C013B6D
:101F50007B63134B134A1A60114B40F2E732DA608D
:101F60000F4A7B6B53600E4B00221A610C4B002210
:101F70009A600B4808F07FF80346002B04D108480C
:101F800008F0D0F8034600E0012318464037BD466C
:101F900080BD00BF080000240044025883DE1B43BC
:101FA000CC1700240008004080B400AF00BFFDE75C
:101FB00080B400AF00BFFDE780B400AF00BFFDE715
:101FC00080B400AF00BFFDE780B400AF00BFFDE705
:101FD00080B400AF00BFBD465DF8047B70470000D1
:101FE00080B500AF024808F015F900BF80BD00BF02
:101FF000CC17002480B500AF024802F04FFC00BFB0
:1020000080BD00BF3011002480B500AF024802F04F
:102010005FFC00BF80BD00BF3011002480B500AF61
:10202000024807F053FD00BF80BD00BF101200241E
:1020300080B500AF024808F0C9FB00BF80BD00BFFB
:102040003014002480B500AF024808F0BFFB00BF89
:1020500080BD00BFFC14002480B500AF024808F02A
:10206000B5FB00BF80BD00BFC815002480B500AF20
:10207000024808F0ABFB00BF80BD00BF98120024EF
:1020800080B500AF024808F0A1FB00BF80BD00BFD3
:102090006413002480B500AF024808F097FB00BF2E
:1020A00080BD00BF9416002480B500AF024802F046
:1020B000F5FB00BF80BD00BF8411002480B500AFD8
:1020C000024802F005FC00BF80BD00BF841100245F
:1020D00080B400AF01231846BD465DF8047B70470D
:1020E00080B582B000AF786039600EF02FFE0346F5
:1020F00016221A604FF0FF3318460837BD4680BDE0
:1021000080B582B000AF78604FF0FF317868FFF79C
:10211000E7FF00BFFDE780B586B000AFF860B960AB
:102120007A6000237B610AE0AFF300800146BB6860
:102130005A1CBA60CAB21A707B6901337B617A6932
:102140007B689A42F0DB7B6818461837BD4680BD35
:1021500080B586B000AFF860B9607A6000237B611B
:1021600009E0BB685A1CBA601B781846AFF30080C0
:102170007B6901337B617A697B689A42F1DB7B681A
:1021800018461837BD4680BD80B483B000AF786074
:102190004FF0FF3318460C37BD465DF8047B70479F
:1021A00080B483B000AF786039603B684FF4005270
:1021B0005A60002318460C37BD465DF8047B704713
:1021C00080B483B000AF7860012318460C37BD4659
:1021D0005DF8047B704780B485B000AFF860B960EB
:1021E0007A60002318461437BD465DF8047B7047BB
:1021F00080B586B000AF7860144A154BD31A7B6166
:102200007B693B61134B1B68002B02D1114B124AB7
:102210001A60104B1A687B6813443A699A4207D2D5
:102220000EF094FD03460C221A604FF0FF3309E0D4
:10223000084B1B68FB60074B1A687B681344054A10
:102240001360FB6818461837BD4680BD0000102497
:10225000000400001818002418AE042480B400AF55
:102260003E4BD3F888303D4A43F47003C2F88830BF
:102270003B4B1B6803F00F03022B07D8384B1B683E
:1022800023F00F03364A43F003031360354B1B68FA
:10229000344A43F001031360324B00221A61314B80
:1022A0001A683049304B13400B602D4B1B6803F00C
:1022B0000C03002B07D02A4B1B6823F00F03284A7E
:1022C00043F003031360274B00229A61254B002241
:1022D000DA61244B00221A62224B244A9A62214B73
:1022E000234ADA621F4B234A1A631E4B00225A63A9
:1022F0001C4B204A9A631B4B0022DA63194B1D4A80
:102300001A64184B00225A64164B1B68154A23F4B2
:1023100080231360134B00221A66124BD3F834311A
:1023200003F48053002B13D10E4BD3F834310D4AF4
:1023300043F48053C2F834310F4B43F2D2021A6097
:10234000084BD3F83431074A23F48053C2F83431B0
:1023500000BFBD465DF8047B704700BF00ED00E0A4
:1023600000200052004402587FEDF6EA000202020B
:102370000000FF01800201010040005280B400AF64
:10238000094BDB68084A43F00203D36000BF064BE9
:102390005B6803F40053002BF9D000BF00BFBD46BB
:1023A0005DF8047B704700BF0048025880B483B0DA
:1023B00000AF7860044A7B681A607B6818460C3767
:1023C000BD465DF8047B7047642F010880B483B07C
:1023D00000AF7860044A7B681A607B6818460C3747
:1023E000BD465DF8047B7047642F010880B582B05C
:1023F00000AF78607868FFF7E9FF142178680DF086
:1024000025FE7B6818460837BD4680BD80B500AF05
:102410000248FFF7CBFF00BF80BD00BF1C1800249F
:1024200080B500AF0248FFF7D1FF00BF80BD00BFFD
:102430001C18002480B500AFFFF7E8FF80BD80B511
:1024400000AFFFF7EDFF80BDDFF838D0FFF796FF54
:10245000FFF704FF0C480D490D4A002302E0D45851
:10246000C4500433C4188C42F9D30A4A0A4C0023DE
:1024700001E013600432A242FBD30EF06DFCFEF7C4
:10248000F9F970470000102400000024DC0100244A
:10249000E0340108DC01002418AE0424FEE700004B
:1024A00080B582B000AF032000F067FF04F0AAFA05
:1024B0000246154B9B691B0A03F00F031349CB5CC3
:1024C00003F01F0322FA03F37B600F4B9B6903F0B9
:1024D0000F030E4AD35C03F01F037A6822FA03F35A
:1024E0000B4A13600B4A7B6813600F20FFF7F0FC68
:1024F0000346002B01D0012302E0FFF735F800234B
:1025000018460837BD4680BD004402584C2F0108CC
:10251000040000240000002480B400AF064B1B78A8
:102520001A46064B1B681344044A136000BFBD469D
:102530005DF8047B704700BF0C00002430180024B5
:1025400080B400AF034B1B681846BD465DF8047BA2
:10255000704700BF3018002480B483B000AF7860AB
:1025600039607B689B6823F47C123B681A437B6864
:102570009A6000BF0C37BD465DF8047B704780B49D
:1025800083B000AF786039607B689B6823F0E072AD
:102590003B681A437B689A6000BF0C37BD465DF804
:1025A000047B704780B483B000AF78607B689B6821
:1025B00003F0E07318460C37BD465DF8047B7047A6
:1025C00080B487B000AF786039603B68C3F3130311
:1025D000002B07D13B689B0E03F01F03012202FA78
:1025E00003F315E03B683B613B6993FAA3F3FB609F
:1025F000FB687B617B69002B01D1202303E07B69B1
:10260000B3FA83F3DBB203F01F03012202FA03F3F0
:102610007A68D2691A437B68DA6100BF1C37BD460D
:102620005DF8047B704780B487B000AFF860B96094
:102630007A603B60FB6860331A46BB689B001344BA
:102640007B617B691B6803F000427B6803F0F84103
:102650003B680B431A437B691A6000BF1C37BD46B9
:102660005DF8047B704780B485B000AFF860B96056
:102670007A60FB681B6923F4F042BB6803F01F0318
:10268000796801FA03F31A43FB681A6100BF143733
:10269000BD465DF8047B704780B487B000AFF8603A
:1026A000B9607A60FB6860331A46BB689B001344CC
:1026B0007B617B691B6823F000427B681A437B695E
:1026C0001A6000BF1C37BD465DF8047B704780B4BC
:1026D00087B000AFF860B9607A60FB6830331A46A3
:1026E000BB681B0A9B0003F00C0313447B617B69EE
:1026F0001A68BB6803F01F031F2101FA03F3DB43D1
:102700001A407B689B0E03F01F01BB6803F01F0398
:1027100001FA03F31A437B691A6000BF1C37BD46F8
:102720005DF8047B704780B487B000AFF860B96093
:102730007A60FB6814331A46BB685B0E9B0003F09B
:10274000040313447B617B691A68BB681B0D03F0AB
:102750001F03072101FA03F3DB431A40BB681B0D7B
:1027600003F01F03796801FA03F31A437B691A60C7
:1027700000BF1C37BD465DF8047B704780B485B050
:1027800000AFF860B9607A60FB68D3F8C020BB681E
:10279000C3F31303DB431A407B6803F018030849B3
:1027A000D940BB680B40C3F313031A43FB68C3F85B
:1027B000C02000BF1437BD465DF8047B704700BFE2
:1027C000FFFF0F0080B483B000AF78607B689A6829
:1027D000044B13407A68936000BF0C37BD465DF828
:1027E000047B7047C0FFFF5F80B483B000AF7860A8
:1027F0007B689B6803F00053B3F1005F01D10123B4
:1028000000E0002318460C37BD465DF8047B704796
:1028100080B483B000AF78607B689A68054B134042
:1028200043F080527B689A6000BF0C37BD465DF86C
:10283000047B7047C0FFFF6F80B483B000AF786047
:102840007B689B6803F08053B3F1805F01D1012363
:1028500000E0002318460C37BD465DF8047B704746
:1028600080B483B000AF78607B689B6803F001039D
:10287000012B01D1012300E0002318460C37BD468F
:102880005DF8047B704780B483B000AF78607B68EC
:102890009B6803F00403042B01D1012300E0002313
:1028A00018460C37BD465DF8047B704780B483B092
:1028B00000AF78607B689B6803F00803082B01D1A8
:1028C000012300E0002318460C37BD465DF8047B69
:1028D0007047000090B589B000AF78600023FB77A7
:1028E0000023BB607B68002B01D1012338E17B68AA
:1028F000DB68002B7B685B6D002B09D17868FEF7E5
:1029000051FE7B6800229A657B68002283F8502084
:102910007B681B681846FFF767FF0346002B04D04F
:102920007B681B681846FFF74DFF7B681B681846DD
:10293000FFF782FF0346002B14D17B681B68184603
:10294000FFF766FF884B1B689B09884AA2FB03239D
:102950009B090133BB6002E0BB68013BBB60BB6805
:10296000002BF9D17B681B681846FFF765FF03460B
:10297000002B0DD17B685B6D43F010027B685A65BC
:102980007B689B6D43F001027B689A650123FB77AE
:102990007B681B681846FFF776FF78617B685B6D84
:1029A00003F01003002B40F0D2807B69002B40F035
:1029B000CE807B685B6D23F4817343F002027B68F9
:1029C0005A657B681B681846FFF74AFF0346002BD1
:1029D00010D16748FFF744FF04466648FFF740FF01
:1029E00003462343002B05D17B685B681946624888
:1029F000FFF7B2FD7B685B7D5A037B681B6B1A4354
:102A00007B689B681A437B681B7F1B041343BB6175
:102A10007B681B7F012B06D17B681B6A013B5B0433
:102A2000BA691343BB617B685B6A002B09D07B6882
:102A30005B6A03F478727B689B6A1343BA69134339
:102A4000BB617B681B68DA684C4B13407A6812687C
:102A5000B9690B43D3607B681B681846FFF713FF07
:102A600038617B681B681846FFF720FFF8603B69F8
:102A7000002B4AD1FB68002B47D17B681B7D9A0352
:102A80007B68DB6A1343BB617B681B68DA683C4B7D
:102A900013407A681268B9690B43D3607B6893F876
:102AA0003830012B1BD17B685B6A002B7B681B686D
:102AB0001A69344B13407A68D26B013A11047A6870
:102AC000126C11437A68526C11437A68926C0A4313
:102AD0001A437B681B6842F001021A6107E07B68B9
:102AE0001B681A697B681B6822F001021A617B6807
:102AF0001B681B6923F070417B685A6B7B681B68FD
:102B00000A431A61786800F0BDFA7B68DB68012B24
:102B10000CD17B681B681B6B23F00F017B689B69E2
:102B20005A1E7B681B680A431A6307E07B681B68B0
:102B30001A6B7B681B6822F00F021A637B685B6D5F
:102B400023F0030343F001027B685A6507E07B68CA
:102B50005B6D43F010027B685A650123FB77FB7FB6
:102B600018462437BD4690BD00000024632D3E0565
:102B700000200240002102400023024003C0F0FF79
:102B8000FCBFFFFF1EF800FC90B58DB000AF786071
:102B90003960002387F82F300023FB603B68DB6837
:102BA0005B4A93427B6893F85030012B01D102239A
:102BB00063E27B68012283F850207B681B6818461B
:102BC000FFF761FE0346002B40F048823B681B681C
:102BD000002B2CDB3B681B68C3F31303002B08D1CD
:102BE0003B681B689B0E03F01F03012202FA03F3EC
:102BF00016E03B681B687B617B6993FAA3F33B613A
:102C00003B69BB61BB69002B01D1202303E0BB6999
:102C1000B3FA83F3DBB203F01F03012202FA03F3DA
:102C20007A681268D1697A6812680B43D3617B684D
:102C300018683B6859683B681B681A46FFF747FDF0
:102C40007B681B681846FFF71EFEB8627B681B682E
:102C50001846FFF72BFE7862BB6A002B40F0A2807B
:102C60007B6A002B40F09E807B6818683B6819687F
:102C70003B689B681A46FFF756FD7B681B68DB685C
:102C800003F01003002B0BD13B685A697B681B686B
:102C9000DB689B0803F007035B0002FA03F30AE01A
:102CA0003B685A697B681B68DB689B0803F0040378
:102CB0005B0002FA03F33B623B681B69042B29D0DB
:102CC0007B6818683B6819693B681A683B6AFFF7BC
:102CD000AAFC7B6818683B6819693B685B7E012B1E
:102CE00002D14FF0004300E000231A46FFF7D4FC66
:102CF0007B6818683B6819693B681B7E012B02D111
:102D00004FF4006300E000231A46FFF7ACFC49E0F3
:102D10000000FF477B681B681B6E03F0F8423B68AE
:102D20001B689B069A4207D17B681B681A6E7B68FA
:102D30001B6822F000421A667B681B685B6E03F01A
:102D4000F8423B681B689B069A4207D17B681B6868
:102D50005A6E7B681B6822F000425A667B681B68CB
:102D60009B6E03F0F8423B681B689B069A4207D1B2
:102D70007B681B689A6E7B681B6822F000429A662B
:102D80007B681B68DB6E03F0F8423B681B689B06A0
:102D90009A4207D17B681B68DA6E7B681B6822F059
:102DA0000042DA667B681B681846FFF759FD034648
:102DB000002B40F05C817B6818683B6819683B68B1
:102DC000DB681A46FFF7DAFC3B68DB68894A934206
:102DD00040F09A807B681A687B681B6886498B4242
:102DE00047D13B681B6885498B4240D03B681B68D4
:102DF00083498B4239D03B681B6882498B4232D071
:102E00003B681B6880498B422BD03B681B687F491D
:102E10008B4224D03B681B687D498B421DD03B68A8
:102E20001B687C498B4216D03B681B687A498B42F1
:102E30000FD03B681B6879498B4208D03B681B6800
:102E400077498B4201D1774B5AE0002358E0764B0B
:102E500056E0764B54E0704B52E06E4B50E0744BB2
:102E60004EE0744B4CE0744B4AE0744B48E0012355
:102E700046E07B681B6872498B4240D13B681B6807
:102E80005E498B4239D03B681B685D498B4232D02A
:102E90003B681B685B498B422BD03B681B685A49D7
:102EA0008B4224D03B681B6858498B421DD03B683D
:102EB0001B6857498B4216D03B681B6855498B42AB
:102EC0000FD03B681B6854498B4208D03B681B6895
:102ED00053498B4201D1534B12E0002310E0534B76
:102EE0000EE04D4B0CE04B4B0AE0514B08E0514BD0
:102EF00006E0514B04E0514B02E0012300E00023C7
:102F000019461046FFF75CFB3B681B68002B80F2FC
:102F1000AE804C48FFF746FBF8613748FFF7A0FC4E
:102F200004464748FFF79CFC03462343002B56D139
:102F30003B681B68444A934223D1FB6903F40003B6
:102F4000002B1ED17B681B683D4A934240F08F8066
:102F5000FB6943F4000319463A48FFF710FB3B4B6B
:102F60001B689B093A4AA2FB03239B0901335B00C0
:102F7000FB6002E0FB68013BFB60FB68002BF9D1C2
:102F800075E03B681B68334A934211D1FB6903F03B
:102F90008073002B0CD17B681B68294A934266D151
:102FA000FB6943F0807319462648FFF7E8FA5EE0B4
:102FB0003B681B68284A934259D1FB6903F480039C
:102FC000002B54D17B681B681D4A93424FD1FB698B
:102FD00043F4800319461B48FFF7D1FA47E07B68AA
:102FE0005B6D43F020027B685A65012387F82F3020
:102FF0003DE000BF0000FF47002002400200300417
:10300000040060080800900C1000C0102000F014AC
:103010000004002A0008302E001060320000214316
:103020000000844B0000B84F00005247002090364B
:103030000002B025000180218000501D40002019B1
:103040000021024000230240000084CB0000002445
:10305000632D3E050040C0BA0000B8CF7B685B6DB1
:1030600043F020027B685A65012387F82F307B6884
:10307000002283F8502097F82F3018463437BD4689
:1030800090BD00BF80B584B000AF7860604B9B6896
:1030900003F44033002B1CD003F02EFEF8607B6855
:1030A0005B68B3F5403F10D0B3F5403F73D8B3F53C
:1030B000803F02D0B3F5003F6DD17B685B681B0C8D
:1030C000FA68B2FBF3F3FB6068E0FB689B08FB6007
:1030D00064E04FF400204FF0000105F069F8F8605B
:1030E0007B685B68B3F5301F51D0B3F5301F54D8FF
:1030F000B3F5201F47D0B3F5201F4ED8B3F5101FEE
:103100003DD0B3F5101F48D8B3F5001F33D0B3F549
:10311000001F42D8B3F5E01F29D0B3F5E01F3CD81B
:10312000B3F5C01F1AD0B3F5C01F36D8B3F5A01F32
:1031300014D0B3F5A01F30D8B3F5801F0ED0B3F56F
:10314000801F2AD8B3F5402F08D0B3F5402F24D8DC
:10315000B3F5802F02D0B3F5002F1ED17B685B68DA
:103160009B0C5B00FA68B2FBF3F3FB6016E0FB68B4
:103170001B09FB6012E0FB685B09FB600EE0FB686B
:103180009B09FB600AE0FB68DB09FB6006E0FB686B
:103190001B0AFB6002E000BF00E000BFFB685B08A9
:1031A000FB60FB681B4A934208D87B681B689A68DF
:1031B0007B681B6822F440729A6025E0FB68164A1F
:1031C00093420AD87B681B689B6823F440727B6833
:1031D0001B6842F480729A6016E0FB680F4A9342C3
:1031E0000AD87B681B689B6823F440727B681B6865
:1031F00042F400729A6007E07B681B689A687B68FB
:103200001B6842F440729A6000BF1037BD4680BD13
:1032100000230240105E5F0020BCBE0040787D01AC
:1032200080B485B000AF78607B6803F00703FB6073
:103230000B4BDB68BB60BA684FF6FF031340BB6003
:10324000FB681A02BB681A43064B1343BB60044A6F
:10325000BB68D36000BF1437BD465DF8047B704780
:1032600000ED00E00000FA0580B400AF044BDB681D
:103270001B0A03F007031846BD465DF8047B704740
:1032800000ED00E080B483B000AF0346FB80B7F9E7
:103290000630002B0BDBFB8803F01F020749B7F950
:1032A00006305B09012000FA02F241F8232000BF3A
:1032B0000C37BD465DF8047B704700BF00E100E0BD
:1032C00080B483B000AF03463960FB80B7F90630A5
:1032D000002B0ADB3B68DAB20C49B7F90630120161
:1032E000D2B20B4483F800230AE03B68DAB2084903
:1032F000FB8803F00F03043B1201D2B20B441A7691
:1033000000BF0C37BD465DF8047B704700E100E06C
:1033100000ED00E080B489B000AFF860B9607A6079
:10332000FB6803F00703FB61FB69C3F10703042B90
:1033300028BF0423BB61FB690433062B02D9FB6958
:10334000033B00E000237B614FF0FF32BB6902FAD0
:1033500003F3DA43BB681A407B699A404FF0FF31B0
:103360007B6901FA03F3D9437B680B40134318468A
:103370002437BD465DF8047B704780B582B000AF4E
:1033800078607868FFF74CFF00BF0837BD4680BD06
:1033900080B586B000AF0346B9607A60FB81FFF765
:1033A00063FF78617A68B9687869FFF7B3FF02460E
:1033B000B7F90E3011461846FFF782FF00BF1837E5
:1033C000BD4680BD80B582B000AF0346FB80B7F933
:1033D00006301846FFF756FF00BF0837BD4680BDD0
:1033E00080B400AFBFF35F8F00BF074B5B6A064A34
:1033F00023F480335362054B00225A6000BFBD4660
:103400005DF8047B704700BF00ED00E090ED00E048
:1034100080B483B000AF78600B4A7B6843F001034F
:1034200053600A4B5B6A094A43F480335362BFF32B
:103430004F8F00BFBFF36F8F00BF00BF0C37BD467B
:103440005DF8047B704700BF90ED00E000ED00E008
:1034500080B483B000AF78607B685A781B4B9A6069
:103460001A4B1B69194A23F001031361174A7B6841
:103470005B68D3607B681B7B1A077B68DB7A1B0663
:103480001A437B689B7ADB041A437B685B7B9B0453
:103490001A437B689B7B5B041A437B68DB7B1B04C2
:1034A0001A437B685B7A1B021A437B681B7A5B00BA
:1034B00013437A6812781146044A0B43136100BF24
:1034C0000C37BD465DF8047B704700BF90ED00E00F
:1034D00080B586B000AF7860FFF732F838617B685E
:1034E000002B01D10123DCE27B6893F83530DBB29D
:1034F000022B08D07B6880225A657B68002283F803
:1035000034200123CDE27B681B68764A93424AD07F
:103510007B681B68744A934245D07B681B68734A7A
:10352000934240D07B681B68714A93423BD07B68D2
:103530001B68704A934236D07B681B686E4A934280
:1035400031D07B681B686D4A93422CD07B681B6826
:103550006B4A934227D07B681B686A4A934222D009
:103560007B681B68684A93421DD07B681B68674A6A
:10357000934218D07B681B68654A934213D07B68DE
:103580001B68644A93420ED07B681B68624A934270
:1035900009D07B681B68614A934204D07B681B6832
:1035A0005F4A934201D1012300E00023002B13D096
:1035B0007B681B681A687B681B6822F01E021A6011
:1035C0007B681B685A697B681B6822F080025A611D
:1035D0007B681B687B610AE07B681B681A687B68F4
:1035E0001B6822F00E021A607B681B687B617B6897
:1035F0001B683C4A934272D07B681B683A4A9342EC
:103600006DD07B681B68394A934268D07B681B6821
:10361000374A934263D07B681B68364A93425ED038
:103620007B681B68344A934259D07B681B68334AD5
:10363000934254D07B681B68314A93424FD07B68D9
:103640001B68304A93424AD07B681B682E4A9342DB
:1036500045D07B681B682D4A934240D07B681B682D
:103660002B4A93423BD07B681B682A4A934236D050
:103670007B681B68284A934231D07B681B68274AC5
:1036800093422CD07B681B68254A934227D07B68E5
:103690001B68244A934222D07B681B68224A9342CB
:1036A0001DD07B681B68214A934218D07B681B6839
:1036B0001F4A934213D07B681B681E4A93420ED068
:1036C0007B681B681C4A934209D07B681B681B4AB5
:1036D000934204D07B681B68194A934232D101237C
:1036E00031E000BF100002402800024040000240CC
:1036F000580002407000024088000240A0000240D2
:10370000B800024010040240280402404004024075
:10371000580402407004024088040240A0040240A1
:10372000B8040240085402581C540258305402583D
:1037300044540258585402586C5402588054025849
:10374000945402580023002B07D07B681B6E1A6824
:103750007B681B6E22F480721A607B681B686D4A5E
:1037600093424AD07B681B686B4A934245D07B6882
:103770001B686A4A934240D07B681B68684A934240
:103780003BD07B681B68674A934236D07B681B68D6
:10379000654A934231D07B681B68644A93422CD0BF
:1037A0007B681B68624A934227D07B681B68614A2A
:1037B000934222D07B681B685F4A93421DD07B688E
:1037C0001B685E4A934218D07B681B685C4A934230
:1037D00013D07B681B685B4A93420ED07B681B68E2
:1037E000594A934209D07B681B68584A934204D0D7
:1037F0007B681B68564A934208D17B681B681A682D
:103800007B681B6822F001021A6007E07B681B6876
:103810001A687B681B6822F001021A6013E0FEF749
:103820008FFE02463B69D31A052B0CD97B682022F8
:103830005A657B68032283F835207B68002283F871
:10384000342001232DE17B691B6803F00103002B69
:10385000E5D17B681B682F4A93424AD07B681B687E
:103860002D4A934245D07B681B682C4A934240D036
:103870007B681B682A4A93423BD07B681B68294AB5
:10388000934236D07B681B68274A934231D07B68CD
:103890001B68264A93422CD07B681B68244A9342BB
:1038A00027D07B681B68234A934222D07B681B6821
:1038B000214A93421DD07B681B68204A934218D04E
:1038C0007B681B681E4A934213D07B681B681D4AA5
:1038D00093420ED07B681B681B4A934209D07B68D9
:1038E0001B681A4A934204D07B681B68184A9342AB
:1038F00001D1012300E00023002B2BD07B689B6DBE
:10390000BB607B68DB6D03F01F033F229A40BB68FE
:103910009A602AE010000240280002404000024065
:10392000580002407000024088000240A00002409F
:10393000B800024010040240280402404004024043
:10394000580402407004024088040240A00402406F
:10395000B80402407B689B6DFB607B68DB6D03F005
:103960001F0301229A40FB685A607B681B684F4A1C
:10397000934272D07B681B684D4A93426DD07B683E
:103980001B684C4A934268D07B681B684A4A934242
:1039900063D07B681B68494A93425ED07B681B6892
:1039A000474A934259D07B681B68464A934254D099
:1039B0007B681B68444A93424FD07B681B68434A2C
:1039C00093424AD07B681B68414A934245D07B684A
:1039D0001B68404A934240D07B681B683E4A934232
:1039E0003BD07B681B683D4A934236D07B681B689E
:1039F0003B4A934231D07B681B683A4A93422CD0B1
:103A00007B681B68384A934227D07B681B68374A1B
:103A1000934222D07B681B68354A93421DD07B6855
:103A20001B68344A934218D07B681B68324A934221
:103A300013D07B681B68314A93420ED07B681B68A9
:103A40002F4A934209D07B681B682E4A934204D0C8
:103A50007B681B682C4A934201D1012300E00023BC
:103A6000002B15D07B685B6E7A68926E5A607B681B
:103A7000DB6E002B0CD07B68DB6E1A687B68DB6E1C
:103A800022F480721A607B681B6F7A68526F5A60EA
:103A90007B68012283F835207B68002283F834207C
:103AA000002318461837BD4680BD00BF10000240F5
:103AB00028000240400002405800024070000240CE
:103AC00088000240A0000240B800024010040240FA
:103AD000280402404004024058040240700402409E
:103AE00088040240A0040240B8040240085402586E
:103AF0001C54025830540258445402585854025826
:103B00006C540258805402589454025880B584B0C2
:103B100000AF78607B68002B01D1012337E27B681E
:103B200093F83530DBB2022B04D07B6880225A65D3
:103B300001232CE27B681B685C4A93424AD07B6875
:103B40001B685B4A934245D07B681B68594A934285
:103B500040D07B681B68584A93423BD07B681B6807
:103B6000564A934236D07B681B68554A934231D0FF
:103B70007B681B68534A93422CD07B681B68524A6F
:103B8000934227D07B681B68504A934222D07B68BF
:103B90001B684F4A93421DD07B681B684D4A934275
:103BA00018D07B681B684C4A934213D07B681B6813
:103BB0004A4A93420ED07B681B68494A934209D017
:103BC0007B681B68474A934204D07B681B68464A5F
:103BD000934201D1012300E00023002B00F08680F6
:103BE0007B68042283F835207B681B682F4A934248
:103BF0004AD07B681B682E4A934245D07B681B687D
:103C00002C4A934240D07B681B682B4A93423BD09E
:103C10007B681B68294A934236D07B681B68284A18
:103C2000934231D07B681B68264A93422CD07B6834
:103C30001B68254A934227D07B681B68234A93421E
:103C400022D07B681B68224A93421DD07B681B6888
:103C5000204A934218D07B681B681F4A934213D0B6
:103C60007B681B681D4A93420ED07B681B681C4A08
:103C7000934209D07B681B681A4A934204D07B6840
:103C80001B68194A934208D17B681B681A687B68D5
:103C90001B6822F001021A6078E17B681B681A68D1
:103CA0007B681B6822F001021A606FE1100002407D
:103CB00028000240400002405800024070000240CC
:103CC00088000240A0000240B800024010040240F8
:103CD000280402404004024058040240700402409C
:103CE00088040240A0040240B80402407B681B68BC
:103CF0001A687B681B6822F00E021A607B681B68DA
:103D00006C4A93424AD07B681B686B4A934245D009
:103D10007B681B68694A934240D07B681B68684A8D
:103D200093423BD07B681B68664A934236D07B68DF
:103D30001B68654A934231D07B681B68634A934293
:103D40002CD07B681B68624A934227D07B681B6833
:103D5000604A934222D07B681B685F4A93421DD021
:103D60007B681B685D4A934218D07B681B685C4A7D
:103D7000934213D07B681B685A4A93420ED07B68EB
:103D80001B68594A934209D07B681B68574A934283
:103D900004D07B681B68564A934208D17B681B6835
:103DA0001A687B681B6822F001021A6007E07B68D2
:103DB0001B681A687B681B6822F001021A607B6826
:103DC0001B683C4A934272D07B681B683A4A934214
:103DD0006DD07B681B68394A934268D07B681B684A
:103DE000374A934263D07B681B68364A93425ED061
:103DF0007B681B68344A934259D07B681B68334AFE
:103E0000934254D07B681B68314A93424FD07B6801
:103E10001B68304A93424AD07B681B682E4A934203
:103E200045D07B681B682D4A934240D07B681B6855
:103E30002B4A93423BD07B681B682A4A934236D078
:103E40007B681B68284A934231D07B681B68274AED
:103E500093422CD07B681B68254A934227D07B680D
:103E60001B68244A934222D07B681B68224A9342F3
:103E70001DD07B681B68214A934218D07B681B6861
:103E80001F4A934213D07B681B681E4A93420ED090
:103E90007B681B681C4A934209D07B681B681B4ADD
:103EA000934204D07B681B68194A934232D10123A4
:103EB00031E000BF100002402800024040000240F4
:103EC000580002407000024088000240A0000240FA
:103ED000B80002401004024028040240400402409E
:103EE000580402407004024088040240A0040240CA
:103EF000B8040240085402581C5402583054025866
:103F000044540258585402586C5402588054025871
:103F1000945402580023002B28D07B681B6E1A682B
:103F20007B681B6E22F480721A607B689B6DFB605D
:103F30007B68DB6D03F01F0301229A40FB685A6027
:103F40007B685B6E7A68926E5A607B68DB6E002BD2
:103F50000CD07B68DB6E1A687B68DB6E22F48072A3
:103F60001A607B681B6F7A68526F5A607B68012207
:103F700083F835207B68002283F834207B681B6D32
:103F8000002B03D07B681B6D786898470023184688
:103F90001037BD4680BD00BF80B483B000AF7860ED
:103FA0007B6893F83530DBB218460C37BD465DF8B8
:103FB000047B704780B489B000AF7860396000231B
:103FC000FB61894B7B6194E13B681A680121FB69C5
:103FD00001FA03F313403B613B69002B00F086813B
:103FE0003B685B6803F00303012B05D03B685B680B
:103FF00003F00303022B30D17B689B68BB61FB6934
:104000005B00032202FA03F3DB43BA691340BB618E
:104010003B68DA68FB695B0002FA03F3BA69134391
:10402000BB617B68BA699A607B685B68BB6101228F
:10403000FB6902FA03F3DB43BA691340BB613B68D7
:104040005B681B0903F00102FB6902FA03F3BA691A
:104050001343BB617B68BA695A603B685B6803F0D5
:104060000303032B17D07B68DB68BB61FB695B0034
:10407000032202FA03F3DB43BA691340BB613B68D6
:104080009A68FB695B0002FA03F3BA691343BB61E8
:104090007B68BA69DA603B685B6803F00303022B54
:1040A00023D1FB69DA087B68083253F82230BB6100
:1040B000FB6903F007039B000F2202FA03F3DB43C3
:1040C000BA691340BB613B681A69FB6903F00703D7
:1040D0009B0002FA03F3BA691343BB61FB69DA0878
:1040E0007B680832B96943F822107B681B68BB61A2
:1040F000FB695B00032202FA03F3DB43BA69134056
:10410000BB613B685B6803F00302FB695B0002FA7A
:1041100003F3BA691343BB617B68BA691A603B68F1
:104120005B6803F44033002B00F0E0802F4BD3F8A2
:1041300054312E4A43F00203C2F854312B4BD3F8CA
:10414000543103F00203FB60FB68294AFB699B08BA
:10415000023352F82330BB61FB6903F003039B0079
:104160000F2202FA03F3DB43BA691340BB617B6899
:10417000204A934252D07B681F4A934231D07B68D9
:104180001E4A93422BD07B681D4A934225D07B6800
:104190001C4A93421FD07B681B4A934219D07B680C
:1041A0001A4A934213D07B68194A93420DD07B6818
:1041B000184A934207D07B68174A934201D10923DA
:1041C0002DE00A232BE0082329E0072327E006231C
:1041D00025E0052323E0042321E003231FE002233D
:1041E0001DE001231BE000BF80000058004402587E
:1041F0000004005800000258000402580008025849
:10420000000C0258001002580014025800180258FE
:10421000001C025800200258002402580023FA69AA
:1042200002F0030292009340BA691343BB6138491C
:10423000FB699B080233BA6941F823204FF0B04371
:104240001B68BB613B69DB43BA691340BB613B68D8
:104250005B6803F48013002B03D0BA693B691343F6
:10426000BB614FF0B042BB6913604FF0B0435B6875
:10427000BB613B69DB43BA691340BB613B685B6868
:1042800003F40013002B03D0BA693B691343BB61ED
:104290004FF0B042BB6953607B695B68BB613B69AF
:1042A000DB43BA691340BB613B685B6803F40033CE
:1042B000002B03D0BA693B691343BB617B69BA69C0
:1042C0005A607B691B68BB613B69DB43BA69134079
:1042D000BB613B685B6803F48033002B03D0BA6991
:1042E0003B691343BB617B69BA691A60FB6901339F
:1042F000FB613B681A68FB6922FA03F3002B7FF429
:1043000063AE00BF00BF2437BD465DF8047B704735
:104310000004005880B483B000AF78600B467B8007
:1043200013467B707B78002B03D07A887B689A6178
:1043300003E07B881A047B689A6100BF0C37BD4696
:104340005DF8047B7047000080B582B000AF7860F4
:104350007B68002B01D101238BE07B6893F841300F
:10436000DBB2002B06D17B68002283F840207868FE
:10437000FDF78AF97B68242283F841207B681B685B
:104380001A687B681B6822F001021A607B685A6811
:104390007B681B6822F070621A617B681B689A68F0
:1043A0007B681B6822F400429A607B68DB68012B03
:1043B00007D17B689A687B681B6842F400429A6068
:1043C00006E07B689A687B681B6842F404429A6046
:1043D0007B68DB68022B08D17B681B685A687B68A6
:1043E0001B6842F400625A6007E07B681B685A68E9
:1043F0007B681B6822F400625A607B681B685968FE
:104400007B681A681D4B0B4353607B681B68DA6836
:104410007B681B6822F40042DA607B681A697B685B
:104420005B6942EA03017B689B691A027B681B682F
:104430000A43DA607B68D9697B681A6A7B681B6803
:104440000A431A607B681B681A687B681B6842F025
:1044500001021A607B6800225A647B68202283F87C
:1044600041207B6800221A637B68002283F8422087
:10447000002318460837BD4680BD00BF00800002FB
:1044800080B588B002AFF8607A601A460B467B812F
:1044900013463B81FB6893F84130DBB2202B40F0A0
:1044A000FD80FB6893F84030012B01D10223F6E038
:1044B000FB68012283F84020FEF742F838613B692F
:1044C0000093192301224FF40041F86801F091F89C
:1044D0000346002B01D00123E1E0FB68212283F891
:1044E0004120FB68102283F84220FB6800225A64B6
:1044F000FB687A685A62FB683A895A85FB68002231
:104500005A63FB685B8D9BB2FF2B06D9FB68FF22C9
:104510001A854FF080737B6107E0FB685B8D9AB270
:10452000FB681A854FF000737B61FB681B8D002BC5
:1045300024D0FB685B6A1A78FB681B689A62FB6888
:104540005B6A5A1CFB685A62FB685B8D9BB2013B3D
:104550009AB2FB685A85FB681B8D013B9AB2FB68D7
:104560001A85FB681B8DDBB20133DAB279894E4BB9
:1045700000937B69F86801F08BFA66E0FB681B8D9D
:10458000DAB27989484B00937B69F86801F080FAC8
:104590005BE03A69396AF86801F084F80346002B59
:1045A00001D001237BE0FB685B6A1A78FB681B681B
:1045B0009A62FB685B6A5A1CFB685A62FB685B8DF7
:1045C0009BB2013B9AB2FB685A85FB681B8D013B8D
:1045D0009AB2FB681A85FB685B8D9BB2002B34D0C6
:1045E000FB681B8D002B30D13B6900933B6A002296
:1045F0008021F86800F0FDFF0346002B01D0012365
:104600004DE0FB685B8D9BB2FF2B0ED9FB68FF2250
:104610001A85FB681B8DDAB27989002300934FF06D
:104620008073F86801F034FA0FE0FB685B8D9AB292
:10463000FB681A85FB681B8DDAB279890023009329
:104640004FF00073F86801F023FAFB685B8D9BB2B2
:10465000002B9ED13A69396AF86801F06AF803467E
:10466000002B01D001231AE0FB681B682022DA61CD
:10467000FB681B685968FB681A680C4B0B40536059
:10468000FB68202283F84120FB68002283F8422047
:10469000FB68002283F84020002300E00223184634
:1046A0001837BD4680BD00BF0020008000E800FE36
:1046B00080B588B002AFF8607A601A460B467B81FD
:1046C00013463B81FB6893F84130DBB2202B40F06E
:1046D000DB80FB6893F84030012B01D10223D4E04A
:1046E000FB68012283F84020FDF72AFF78617B698F
:1046F0000093192301224FF40041F86800F079FF7C
:104700000346002B01D00123BFE0FB68222283F87F
:104710004120FB68102283F84220FB6800225A6483
:10472000FB687A685A62FB683A895A85FB680022FE
:104730005A63FB685B8D9BB2FF2B0ED9FB68FF228F
:104740001A85FB681B8DDAB27989524B00934FF0C2
:104750008073F86801F09CF96DE0FB685B8D9AB29C
:10476000FB681A85FB681B8DDAB27989494B009387
:104770004FF00073F86801F08BF95CE07A69396AF0
:10478000F86801F019F80346002B01D001237CE002
:10479000FB681B685A6AFB685B6AD2B21A70FB68D6
:1047A0005B6A5A1CFB685A62FB681B8D013B9AB21C
:1047B000FB681A85FB685B8D9BB2013B9AB2FB6874
:1047C0005A85FB685B8D9BB2002B34D0FB681B8D38
:1047D000002B30D17B6900933B6A00228021F8686E
:1047E00000F007FF0346002B01D001234DE0FB68DA
:1047F0005B8D9BB2FF2B0ED9FB68FF221A85FB68ED
:104800001B8DDAB27989002300934FF08073F8682A
:1048100001F03EF90FE0FB685B8D9AB2FB681A85E8
:10482000FB681B8DDAB27989002300934FF0007387
:10483000F86801F02DF9FB685B8D9BB2002B9DD1D0
:104840007A69396AF86800F074FF0346002B01D0DA
:1048500001231AE0FB681B682022DA61FB681B68F1
:104860005968FB681A680C4B0B405360FB682022A8
:1048700083F84120FB68002283F84220FB68002275
:1048800083F84020002300E0022318461837BD4675
:1048900080BD00BF0024008000E800FE80B584B029
:1048A00000AF78607B681B689B69FB607B681B6856
:1048B0001B68BB607B685B6B002B05D07B685B6B08
:1048C000BA68F9687868984700BF1037BD4680BD60
:1048D00080B586B000AF78607B681B689B697B61A0
:1048E0007B681B681B683B617B691B0A03F0010343
:1048F000002B10D03B69DB0903F00103002B0AD029
:104900007B685B6C43F001027B685A647B681B68C0
:104910004FF48072DA617B699B0A03F00103002B7C
:1049200010D03B69DB0903F00103002B0AD07B6840
:104930005B6C43F008027B685A647B681B684FF429
:104940008062DA617B695B0A03F00103002B10D0FF
:104950003B69DB0903F00103002B0AD07B685B6C29
:1049600043F002027B685A647B681B684FF4007254
:10497000DA617B685B6CFB60FB6803F00B03002B68
:1049800003D0F968786800F0DBFC00BF1837BD463B
:1049900080BD80B483B000AF786000BF0C37BD46E7
:1049A0005DF8047B704780B483B000AF786000BFCF
:1049B0000C37BD465DF8047B704780B483B000AF10
:1049C00078600B46FB7013463B8000BF0C37BD463A
:1049D0005DF8047B704780B483B000AF786000BF9F
:1049E0000C37BD465DF8047B704780B483B000AFE0
:1049F000786000BF0C37BD465DF8047B704780B41B
:104A000083B000AF786000BF0C37BD465DF8047B13
:104A1000704780B586B000AFF860B9607A60FB6817
:104A2000DB6A7B61BB683B61FB6893F84030012B1C
:104A300001D10223EDE0FB68012283F840203B69AD
:104A40005B0903F00103002B0AD07B685B0903F0CC
:104A50000103002B04D03969F86800F0C1F9D3E0F4
:104A60003B691B0903F00103002B4DD07B681B0938
:104A700003F00103002B47D0FB685B8D9BB2002B3A
:104A800028D1FB6893F84130DBB2282B08D17B6931
:104A9000B3F1007F04D13969F86800F0FBFB32E024
:104AA000FB6893F84130DBB2292B0ED17B6913F5FB
:104AB000803F0AD0FB681B681022DA61F86800F0BA
:104AC00056FDF86800F02DF91DE0FB681B68102208
:104AD000DA6196E0FB681B681022DA61FB685B6CA8
:104AE00043F00402FB685A647B69002B04D07B69A5
:104AF000B3F1807F40F08580FB685B6C1946F868F5
:104B000000F01EFC7DE07CE03B699B0803F00103A4
:104B1000002B30D07B689B0803F00103002B2AD0C8
:104B2000FB685B8D9BB2002B18D0FB681B685A6A30
:104B3000FB685B6AD2B21A70FB685B6A5A1CFB683E
:104B40005A62FB681B8D013B9AB2FB681A85FB68B1
:104B50005B8D9BB2013B9AB2FB685A85FB685B8D0B
:104B60009BB2002B4FD17B6913F5803F4BD0F86887
:104B700000F0D7F847E03B69DB0803F00103002BA6
:104B80000AD07B68DB0803F00103002B04D03969ED
:104B9000F86800F042F837E03B695B0803F0010376
:104BA000002B31D07B685B0803F00103002B2BD076
:104BB000FB685B8D9BB2002B18D0FB685B6A1A7890
:104BC000FB681B689A62FB685B6A5A1CFB685A6246
:104BD000FB685B8D9BB2013B9AB2FB685A85FB6810
:104BE0001B8D013B9AB2FB681A850DE07B69B3F11E
:104BF000807F02D07B69002B06D1F86800F091F825
:104C000002E000BF00E000BFFB68002283F8402004
:104C1000002318461837BD4680BD80B584B000AF6C
:104C2000786039607B6893F84130DBB203F0280389
:104C3000282B6AD17B681B689B691B0CDBB203F0D5
:104C40000103FB737B681B689B691B0C9BB203F021
:104C5000FE03BB817B681B689B689BB2C3F309039F
:104C60007B817B681B68DB689BB203F0FE033B81A2
:104C70007B68DB68022B38D17B89DB099AB2BB8960
:104C800053409BB203F00603002B1CD17B89BB81F0
:104C90007B689B6C5A1C7B689A647B689B6C022BBC
:104CA0003BD17B6800229A647B681B680822DA612A
:104CB0007B68002283F84020BA89FB7B194678681C
:104CC000FFF77BFE29E03B89BB814FF40041786808
:104CD00000F010FF7B68002283F84020BA89FB7B3C
:104CE00019467868FFF769FE17E04FF400417868CD
:104CF00000F000FF7B68002283F84020BA89FB7B2C
:104D000019467868FFF759FE07E07B681B680822A0
:104D1000DA617B68002283F8402000BF1037BD466F
:104D200080BD80B584B000AF78607B681B681B686D
:104D3000FB607B68002283F84220FB689B0B03F03A
:104D40000103002B08D07B681B681A687B681B680E
:104D500022F480421A600DE0FB68DB0B03F00103D4
:104D6000002B07D07B681B681A687B681B6822F4DD
:104D700000421A607B6893F84130DBB2292B12D1D4
:104D80007B68282283F841207B6821221A63012155
:104D9000786800F0AFFE7B68002283F840207868D6
:104DA000FFF7F7FD17E07B6893F84130DBB22A2B61
:104DB00011D17B68282283F841207B6822221A6364
:104DC0000221786800F096FE7B68002283F840207C
:104DD0007868FFF7E8FD00BF1037BD4680BD0000D2
:104DE00080B586B000AF786039607B681B681B684F
:104DF0003B613B687B617B68DB6AFB607B6893F8A7
:104E00004130FB727B681B682022DA61FB7A212B20
:104E100002D0FB7A292B08D148F20101786800F012
:104E200069FE7B6821221A6319E0FB7A222B02D0EB
:104E3000FB7A2A2B08D148F20201786800F05AFE6A
:104E40007B6822221A630AE0FB7A282B07D148F2FA
:104E50000301786800F04EFE7B6800221A637B68CD
:104E60001B685A687B681B6842F400425A607B6882
:104E70001B6859687B681A68804B0B4053607868E0
:104E800000F075FB3B699B0B03F00103002B7AD00C
:104E90007B681B681A687B681B6822F480421A6072
:104EA0007B689B6B002B00F012817B689B6B1B68FF
:104EB000734A934259D07B689B6B1B68714A93423B
:104EC00053D07B689B6B1B686F4A93424DD07B68C5
:104ED0009B6B1B686D4A934247D07B689B6B1B683A
:104EE0006B4A934241D07B689B6B1B68694A934233
:104EF0003BD07B689B6B1B68674A934235D07B68CD
:104F00009B6B1B68654A93422FD07B689B6B1B6829
:104F1000634A934229D07B689B6B1B68614A93422A
:104F200023D07B689B6B1B685F4A93421DD07B68D4
:104F30009B6B1B685D4A934217D07B689B6B1B6819
:104F40005B4A934211D07B689B6B1B68594A934222
:104F50000BD07B689B6B1B68574A934205D07B68DC
:104F60009B6B1B68554A934205D17B689B6B1B6802
:104F70005B689BB204E07B689B6B1B685B689BB2C1
:104F80007A685385A3E03B69DB0B03F00103002B38
:104F900000F09D807B681B681A687B681B6822F4A0
:104FA00000421A607B68DB6B002B00F090807B680E
:104FB000DB6B1B68324A934259D07B68DB6B1B6802
:104FC000304A934253D07B68DB6B1B682E4A934276
:104FD0004DD07B68DB6B1B682C4A934247D07B68C3
:104FE000DB6B1B682A4A934241D07B68DB6B1B68F2
:104FF000284A93423BD07B68DB6B1B68264A93426E
:1050000035D07B68DB6B1B68244A93422FD07B68CA
:10501000DB6B1B68224A934229D07B68DB6B1B68E1
:10502000204A934223D07B68DB6B1B681E4A934265
:105030001DD07B68DB6B1B681C4A934217D07B68D2
:10504000DB6B1B681A4A934211D07B68DB6B1B68D1
:10505000184A93420BD07B68DB6B1B68164A93425D
:1050600005D07B68DB6B1B68144A934228D17B68B0
:10507000DB6B1B685B689BB227E000BF00E800FEAB
:105080001000024028000240400002405800024048
:105090007000024088000240A0000240B8000240B8
:1050A0001004024028040240400402405804024018
:1050B0007004024088040240A0040240B804024088
:1050C0007B68DB6B1B685B689BB27A6853857B6986
:1050D0009B0803F00103002B20D07B6923F004031D
:1050E0007B617B681B685A6A7B685B6AD2B21A7004
:1050F0007B685B6A5A1C7B685A627B681B8D002B3D
:105100000CD07B681B8D013B9AB27B681A857B684B
:105110005B8D9BB2013B9AB27B685A857B685B8D45
:105120009BB2002B05D07B685B6C43F004027B686C
:105130005A647B691B0903F00103002B4AD03B69C9
:105140001B0903F00103002B44D07B685B8D9BB2ED
:10515000002B28D17B6893F84130DBB2282B08D193
:10516000FB68B3F1007F04D17969786800F092F8A8
:1051700030E07B6893F84130DBB2292B0ED1FB681D
:1051800013F5803F0AD07B681B681022DA617868CB
:1051900000F0EDF97868FFF7C4FD1BE07B681B6841
:1051A0001022DA6116E07B681B681022DA617B68E6
:1051B0005B6C43F004027B685A64FB68002B03D0ED
:1051C000FB68B3F1807F05D17B685B6C194678681A
:1051D00000F0B6F87B68002283F842207B6800224A
:1051E0005A637B685B6C002B10D07B685B6C194644
:1051F000786800F0A5F87B6893F84130DBB2282B83
:1052000041D17969786800F045F83CE07B68DB6A59
:1052100013F5803F14D07868FFF783FD7B681C4A44
:10522000DA627B68202283F841207B6800221A63BF
:105230007B68002283F840207868FFF7CCFB22E0EF
:105240007B6893F84130DBB2222B0ED17B682022A1
:1052500083F841207B6800221A637B68002283F870
:1052600040207868FFF79FFB0DE07B68202283F8E1
:1052700041207B6800221A637B68002283F840206B
:105280007868FFF786FB00BF1837BD4680BD00BFBA
:105290000000FFFF80B582B000AF786039607B68A6
:1052A000264ADA627B6800221A637B68202283F830
:1052B00041207B68002283F842207B6800225A63E9
:1052C0003B689B0803F00103002B22D07B681B681E
:1052D0005A6A7B685B6AD2B21A707B685B6A5A1C36
:1052E0007B685A627B681B8D002B12D07B681B8DFC
:1052F000013B9AB27B681A857B685B8D9BB2013B50
:105300009AB27B685A857B685B6C43F004027B68C9
:105310005A6448F20301786800F0ECFB7B681B6874
:105320001022DA617B68002283F840207868FFF75A
:1053300052FB00BF0837BD4680BD00BF0000FFFF25
:1053400080B584B000AF786039607B6893F84130F5
:10535000FB737B68002283F842207B686D4ADA6227
:105360007B6800225A857B685A6C3B681A437B68CD
:105370005A64FB7B282B05D0FB7B292B02D0FB7BBF
:105380002A2B0BD10321786800F0B4FB7B6828221C
:1053900083F841207B68604A5A6330E048F2030199
:1053A000786800F0A7FB786800F0E1F87B6893F874
:1053B0004130DBB2602B1FD07B68202283F8412074
:1053C0007B681B689B6903F02003202B14D17B684A
:1053D0001B689B6903F01003102B09D17B681B68C5
:1053E0001022DA617B685B6C43F004027B685A64CC
:1053F0007B681B682022DA617B6800225A637B6825
:105400001B6BBB607B689B6B002B39D0BB68112B7F
:1054100002D0BB68212B33D17B681B681B6803F467
:105420008043B3F5804F07D17B681B681A687B689F
:105430001B6822F480421A607B689B6B1846FEF75B
:10544000ABFD0346012B17D07B689B6B334A1A6573
:105450007B68002283F840207B689B6B1846FEF730
:1054600055FB0346002B4DD07B689B6B1B6D7A6808
:10547000926B1046984745E0786800F051F841E09B
:105480007B68DB6B002B39D0BB68122B02D0BB686A
:10549000222B33D17B681B681B6803F40043B3F5F0
:1054A000004F07D17B681B681A687B681B6822F471
:1054B00000421A607B68DB6B1846FEF76DFD034601
:1054C000012B17D07B68DB6B144A1A657B680022BE
:1054D00083F840207B68DB6B1846FEF717FB03461A
:1054E000002B11D07B68DB6B1B6D7A68D26B10468A
:1054F000984709E0786800F013F805E0786800F054
:105500000FF802E000BF00E000BF00BF1037BD464B
:1055100080BD00BF0000FFFF134A0008B755000818
:1055200080B582B000AF78607B6893F84130DBB221
:10553000602B0ED17B68202283F841207B680022FB
:105540001A637B68002283F840207868FFF757FAD7
:1055500009E07B6800221A637B68002283F8402000
:105560007868FFF742FA00BF0837BD4680BD80B4B7
:1055700083B000AF78607B681B689B6903F002030F
:10558000022B03D17B681B6800229A627B681B6830
:105590009B6903F00103012B07D07B681B689A69A4
:1055A0007B681B6842F001029A6100BF0C37BD4660
:1055B0005DF8047B704780B584B000AF78607B688D
:1055C0009B6BFB60FB689B6B002B03D0FB689B6BAA
:1055D00000221A65FB68DB6B002B03D0FB68DB6BDA
:1055E00000221A65F868FFF79BFF00BF1037BD4621
:1055F00080BD80B584B000AFF860B9603B601346F1
:10560000FB713BE0BA693968F86800F061F903465C
:10561000002B01D0012341E03B68B3F1FF3F2DD0C7
:10562000FCF78EFF0246BB69D31A3A689A4202D34E
:105630003B68002B22D1FB681B689A69BB6813404A
:10564000BA689A420CBF01230023DBB21A46FB79E9
:105650009A4213D1FB685B6C43F02002FB685A64EA
:10566000FB68202283F84120FB68002283F8422057
:10567000FB68002283F8402001230FE0FB681B68D1
:105680009A69BB681340BA689A420CBF0123002391
:10569000DBB21A46FB799A42B4D000231846103781
:1056A000BD4680BD80B584B000AFF860B9607A6057
:1056B00033E07A68B968F86800F00AF90346002B0D
:1056C00001D0012331E0BB68B3F1FF3F25D0FCF7E7
:1056D00037FF02467B68D31ABA689A4202D3BB6886
:1056E000002B1AD1FB681B689B6903F00203022B95
:1056F00013D0FB685B6C43F02002FB685A64FB68C4
:10570000202283F84120FB68002283F84220FB68B6
:10571000002283F84020012307E0FB681B689B6997
:1057200003F00203022BC4D1002318461037BD46F4
:1057300080BD80B584B000AFF860B9607A602FE0BA
:105740007A68B968F86800F0C3F80346002B01D006
:1057500001232DE0FCF7F4FE02467B68D31ABA68F9
:105760009A4202D3BB68002B1AD1FB681B689B6965
:1057700003F02003202B13D0FB685B6C43F0200266
:10578000FB685A64FB68202283F84120FB680022F2
:1057900083F84220FB68002283F84020012307E0C1
:1057A000FB681B689B6903F02003202BC8D10023F2
:1057B00018461037BD4680BD80B586B000AFF86092
:1057C000B9607A600023FB7571E07A68B968F8689F
:1057D00000F07EF80346002B01D00123FB75FB6827
:1057E0001B689B6903F02003202B3BD1FB7D002B22
:1057F00038D1FB681B689B6903F00403042B05D1B7
:10580000FB681B8D002B01D00023FB75FB681B6818
:105810009B6903F01003102B21D1FB681B68102239
:10582000DA61FB6804225A64FB681B682022DA6193
:10583000FB681B685968FB681A68244B0B4053606F
:10584000FB68202283F84120FB68002283F8422075
:10585000FB68002283F840200123FB7502E0FB680F
:1058600000225A64FCF76CFE02467B68D31ABA68C1
:105870009A4202D3BB68002B19D1FB7D002B16D1B5
:10588000FB681B689B6903F00403042B0FD0FB68C3
:105890005B6C43F02002FB685A64FB68202283F8AB
:1058A0004120FB68002283F840200123FB75FB6840
:1058B0001B689B6903F00403042B02D0FB7D002BC3
:1058C00083D0FB7D18461837BD4680BD00E800FE3A
:1058D00080B58AB000AFF860B9607A60002387F8BD
:1058E0002730FB681B689B69BB6100233B627B68B8
:1058F000FB61BB6903F01003002B68D0FB681B68D9
:105900001022DA6149E0BB68B3F1FF3F45D0FCF7F4
:1059100017FE0246FB69D31ABA689A4202D3BB68E3
:10592000002B3AD1FB681B685B6803F480437B6102
:10593000FB6893F84230FB74FB681B689B6903F4B7
:105940000043B3F5004F21D17B69B3F5804F1DD0E3
:10595000FB7C202B1AD0FB681B685A68FB681B680D
:1059600042F480425A60FCF7EBFDF8610EE0FCF770
:10597000E7FD0246FB69D31A192B07D93B6A43F0AE
:1059800020033B62012387F8273006E0FB681B6891
:105990009B6903F02003202BE9D1FB681B689B69FE
:1059A00003F02003202B03D097F82730002BAAD038
:1059B00097F82730002B03D1FB681B682022DA619F
:1059C0003B6A43F004033B62012387F82730FB68FE
:1059D0001B689B69BB61BB6903F48073002B0BD010
:1059E0003B6A43F001033B62FB681B684FF4807223
:1059F000DA61012387F82730BB6903F48063002B49
:105A00000BD03B6A43F008033B62FB681B684FF412
:105A10008062DA61012387F82730BB6903F40073E1
:105A2000002B0BD03B6A43F002033B62FB681B6810
:105A30004FF40072DA61012387F8273097F8273096
:105A4000002B1CD0F868FFF792FDFB681B685968B3
:105A5000FB681A680D4B0B405360FB685A6C3B6A3D
:105A60001A43FB685A64FB68202283F84120FB68D4
:105A7000002283F84220FB68002283F8402097F838
:105A8000273018462837BD4680BD00BF00E800FE1D
:105A900080B487B000AFF8607B600B467B81134613
:105AA0007B727B89C3F309027B7A1B0403F47F03B7
:105AB0001A437B681A433B6A134323F000437B611C
:105AC000FB681B685A683B6A5B0D03F48061084BF6
:105AD0000B43DB4302EA0301FB681B687A690A4354
